:020000040800F2
:100000000008002001C0000871D4000871D4000865
:1000100071D4000871D4000871D4000871D40008AC
:1000200071D4000871D4000871D4000861E400089C
:1000300071D4000871D4000871D4000861F9000877
:1000400071D40008711D010871D4000871D4000832
:1000500071D4000871D4000871D4000871D400086C
:1000600071D4000871D4000871D40008E1F30008CD
:1000700011F4000841F4000871F40008A1F400082C
:10008000D1F4000801F50008D11C0108C1FA0008EC
:1000900001FB000871FB0008E1FB0008F11C0108EE
:1000A00071D4000871D4000871D4000871D400081C
:1000B00071D40008111D01089113010871D40008C2
:1000C00071D40008310201083103010871D400081D
:1000D00071D4000871D4000871D400080117010818
:1000E00071D4000871D4000871D4000871D40008DC
:1000F00071D4000871D40008411D010831F50008D1
:1001000071D4000871D4000871D4000871D40008BB
:100110002117010871D4000871D4000871D40008B7
:1001200061F5000891F50008C1F50008F1F5000837
:1001300021F6000871D4000871D4000871D40008B9
:1001400071D4000871D4000871D40008711101083D
:1001500051F6000881F60008B1F6000841170108C1
:1001600071D4000871D4000871D4000871D400085B
:1001700071D4000871D4000871D4000871D400084B
:1001800071D4000871D4000871D4000871D400083B
:1001900071D4000871D4000871D4000871D400082B
:1001A00071D4000871D4000871D4000871D400081B
:1001B00071D4000871D4000871D4000871D400080B
:10C0000072B6334880F3098840F20000CCF2000099
:10C010004EF63471CEF200010860BFF34F8FBFF3CC
:10C020006F8F40F20000C0F2F0004EF68851CEF261
:10C0300000010860BFF34F8FBFF36F8F4FF0000018
:10C04000E1EE100A4EF63C71CEF2000108600620C7
:10C0500080F31488BFF36F8F01F0F2F905F068FCEC
:10C060004FF055301B491C4A91423CBF41F8040B2C
:10C07000FAE71A49164A91423CBF41F8040BFAE725
:10C080001749184A184B9A423EBF51F8040B42F820
:10C09000040BF8E700201549154A91423CBF41F8CE
:10C0A000040BFAE701F0D4F9124C134DAC4203DA59
:10C0B00054F8041B8847F9E705F022FD0F4C104D9A
:10C0C000AC4203DA54F8041B8847F9E701F0C8B919
:10C0D00000100020000000200008002000080020C0
:10C0E0008866040800100020A01A0020A01A002072
:10C0F0006875012000C0000800C0000800C00008EA
:10C1000000C0000800000000000000000000000067
:10C110002DE9F04F2DED108AC1F80CD0D0F80CD0DD
:10C12000BDEC108ABDE8F08F002383F31188284608
:10C13000A047002001F0A4FC01F0CAFB00DFFEE7ED
:10C1400081F0004102E000BF83F0004330B54FEAC8
:10C1500041044FEA430594EA050F08BF90EA020F35
:10C160001FBF54EA000C55EA020C7FEA645C7FEAC8
:10C17000655C00F0E2804FEA5454D4EB5555B8BFEB
:10C180006D420CDD2C4480EA020281EA030382EA5C
:10C19000000083EA010180EA020281EA0303362DEE
:10C1A00088BF30BD11F0004F4FEA01314FF4801CC1
:10C1B0004CEA113102D0404261EB410113F0004FD3
:10C1C0004FEA03334CEA133302D0524263EB43038A
:10C1D00094EA050F00F0A780A4F10104D5F1200E28
:10C1E0000DDB02FA0EFC22FA05F2801841F1000183
:10C1F00003FA0EF2801843FA05F359410EE0A5F157
:10C2000020050EF1200E012A03FA0EFC28BF4CF087
:10C21000020C43FA05F3C01851EBE37101F000453D
:10C2200007D54FF0000EDCF1000C7EEB00006EEB4A
:10C230000101B1F5801F1BD3B1F5001F0CD34908D4
:10C240005FEA30004FEA3C0C04F101044FEA44522B
:10C2500012F5800F80F09A80BCF1004F08BF5FEAB2
:10C26000500C50F1000041EB045141EA050130BD92
:10C270005FEA4C0C404141EB010111F4801FA4F135
:10C280000104E9D191F0000F04BF01460020B1FA8A
:10C2900081F308BF2033A3F10B03B3F120020CDAC2
:10C2A0000C3208DD02F1140CC2F10C0201FA0CF0A0
:10C2B00021FA02F10CE002F11402D8BFC2F1200C05
:10C2C00001FA02F120FA0CFCDCBF41EA0C019040BB
:10C2D000E41AA2BF01EB0451294330BD6FEA040404
:10C2E0001F3C1CDA0C340EDC04F11404C4F12002EF
:10C2F00020FA04F001FA02F340EA030021FA04F301
:10C3000045EA030130BDC4F10C04C4F1200220FA57
:10C3100002F001FA04F340EA0300294630BD21FA95
:10C3200004F0294630BD94F0000F83F4801306BF5B
:10C3300081F480110134013D4EE77FEA645C18BF4F
:10C340007FEA655C29D094EA050F08BF90EA020FE6
:10C3500005D054EA000C04BF1946104630BD91EADE
:10C36000030F1EBF0021002030BD5FEA545C05D1E1
:10C370004000494128BF41F0004130BD14F5800420
:10C380003CBF01F5801130BD01F0004545F0FE4194
:10C3900041F470014FF0000030BD7FEA645C1ABFC9
:10C3A000194610467FEA655C1CBF0B46024650EA00
:10C3B000013406BF52EA033591EA030F41F400212C
:10C3C00030BD00BF90F0000F04BF0021704730B5B2
:10C3D0004FF4806404F132044FF000054FF0000187
:10C3E00050E700BF90F0000F04BF0021704730B548
:10C3F0004FF4806404F1320410F0004548BF40421D
:10C400004FF000013EE700BF42004FEAE2014FEA71
:10C4100031014FEA02701FBF12F07F4393F07F4F4C
:10C4200081F06051704792F0000F14BF93F07F4F7E
:10C43000704730B54FF4607401F0004521F00041C1
:10C4400020E700BF50EA010208BF704730B54FF047
:10C4500000050AE050EA010208BF704730B511F04C
:10C46000004502D5404261EB41014FF4806404F184
:10C4700032045FEA915C3FF4DCAE4FF003025FEA06
:10C48000DC0C18BF03325FEADC0C18BF033202EB8E
:10C49000DC02C2F1200300FA03FC20FA02F001FAE8
:10C4A00003FE40EA0E0021FA02F11444C1E600BF87
:10C4B00070B54FF0FF0C4CF4E06C1CEA11541DBF3A
:10C4C0001CEA135594EA0C0F95EA0C0F00F0DEF805
:10C4D0002C4481EA030621EA4C5123EA4C5350EAEA
:10C4E000013518BF52EA033541F4801143F480133B
:10C4F00038D0A0FB02CE4FF00005E1FB02E506F0CC
:10C500000042E0FB03E54FF00006E1FB03569CF020
:10C51000000F18BF4EF0010EA4F1FF04B6F5007F26
:10C5200064F5407404D25FEA4E0E6D4146EB060698
:10C5300042EAC62141EA55514FEAC52040EA5E5021
:10C540004FEACE2EB4F1FD0C88BFBCF5E06F1ED8CB
:10C55000BEF1004F08BF5FEA500E50F1000041EB02
:10C56000045170BD06F0004646EA010140EA0200AF
:10C5700081EA0301B4EB5C04C2BFD4EB0C0541EAD1
:10C58000045170BD41F480114FF0000E013C00F3E6
:10C59000AB8014F1360FDEBF002001F0004170BD0A
:10C5A000C4F10004203C35DA0C341BDC04F1140423
:10C5B000C4F1200500FA05F320FA04F001FA05F2AF
:10C5C00040EA020001F0004221F0004110EBD3707C
:10C5D00021FA04F642EB06015EEA430E08BF20EAA8
:10C5E000D37070BDC4F10C04C4F1200500FA04F34B
:10C5F00020FA05F001FA04F240EA020001F00041DD
:10C6000010EBD37041F100015EEA430E08BF20EA4F
:10C61000D37070BDC4F1200500FA05F24EEA020E97
:10C6200020FA04F301FA05F243EA020321FA04F0C6
:10C6300001F0004121FA04F220EA020000EBD3707D
:10C640005EEA430E08BF20EAD37070BD94F0000F7D
:10C650000FD101F00046400041EB010111F4801FB1
:10C6600008BF013CF7D041EA060195F0000F18BF62
:10C67000704703F00046520043EB030313F4801F9E
:10C6800008BF013DF7D043EA0603704794EA0C0F58
:10C690000CEA135518BF95EA0C0F0CD050EA41066E
:10C6A00018BF52EA4306D1D181EA030101F00041EB
:10C6B0004FF0000070BD50EA410606BF1046194613
:10C6C00052EA430619D094EA0C0F02D150EA01361F
:10C6D00013D195EA0C0F05D152EA03361CBF104660
:10C6E00019460AD181EA030101F0004141F0FE41FF
:10C6F00041F470014FF0000070BD41F0FE4141F483
:10C70000780170BD70B54FF0FF0C4CF4E06C1CEA82
:10C7100011541DBF1CEA135594EA0C0F95EA0C0F37
:10C7200000F0A7F8A4EB050481EA030E52EA0335F2
:10C730004FEA013100F088804FEA03334FF0805513
:10C7400045EA131343EA12634FEA022245EA111540
:10C7500045EA10654FEA00260EF000419D4208BFF1
:10C76000964244F1FD0404F5407402D25B084FEA9E
:10C770003202B61A65EB03055B084FEA32024FF44A
:10C7800080104FF4002CB6EB020E75EB030E22BFA7
:10C79000B61A754640EA0C005B084FEA3202B6EB67
:10C7A000020E75EB030E22BFB61A754640EA5C0016
:10C7B0005B084FEA3202B6EB020E75EB030E22BFA6
:10C7C000B61A754640EA9C005B084FEA3202B6EBA7
:10C7D000020E75EB030E22BFB61A754640EADC0066
:10C7E00055EA060E18D04FEA051545EA16754FEAC8
:10C7F00006164FEAC30343EA52734FEAC2025FEAE6
:10C800001C1CC0D111F4801F0BD141EA00014FF074
:10C8100000004FF0004CB6E711F4801F04BF014345
:10C820000020B4F1FD0C88BFBCF5E06F3FF6AFAE61
:10C83000B5EB030C04BFB6EB020C5FEA500C50F1F1
:10C84000000041EB045170BD0EF0004E4EEA113174
:10C8500014EB5C04C2BFD4EB0C0541EA045170BD7B
:10C8600041F480114FF0000E013C90E645EA060EBF
:10C870008DE60CEA135594EA0C0F08BF95EA0C0FED
:10C880003FF43BAF94EA0C0F0AD150EA01347FF435
:10C8900034AF95EA0C0F7FF425AF104619462CE70C
:10C8A00095EA0C0F06D152EA03353FF4FDAE10466F
:10C8B000194622E750EA410618BF52EA43067FF4C0
:10C8C000C5AE50EA41047FF40DAF52EA43057FF450
:10C8D000EBAE12E7000000000000000000000000C6
:10C8E0004FF0FF3C06E000BF4FF0010C02E000BF3C
:10C8F0004FF0010C4DF804CD4FEA410C7FEA6C5C1F
:10C900004FEA430C18BF7FEA6C5C1BD001B050EAC1
:10C91000410C0CBF52EA430C91EA030F02BF90EAAC
:10C92000020F0020704710F1000F91EA030F58BF6B
:10C93000994208BF90422CBFD8176FEAE37040F0CD
:10C94000010070474FEA410C7FEA6C5C02D150EA6B
:10C95000013C07D14FEA430C7FEA6C5CD6D152EA26
:10C96000033CD3D05DF8040B704700BF84461046EB
:10C9700062468C461946634600E000BF01B5FFF7EA
:10C98000B7FF002848BF10F1000F01BD4DF808EDBA
:10C99000FFF7F4FF0CBF012000205DF808FB00BF8B
:10C9A0004DF808EDFFF7EAFF34BF012000205DF8E5
:10C9B00008FB00BF4DF808EDFFF7E0FF94BF012032
:10C9C00000205DF808FB00BF4DF808EDFFF7CEFF33
:10C9D00094BF012000205DF808FB00BF4DF808ED72
:10C9E000FFF7C4FF34BF012000205DF808FB00BF43
:10C9F0004FEA410C7FEA6C5C02D150EA013C0AD15B
:10CA00004FEA430C7FEA6C5C02D152EA033C02D14C
:10CA10004FF0000070474FF0010070470000000029
:10CA20004FEA410212F5001215D211D56FF4787356
:10CA3000B3EB625212D94FEAC12343F0004343EAF9
:10CA4000505311F0004F23FA02F018BF40427047D4
:10CA50004FF00000704750EA013005D111F000405E
:10CA600008BF6FF0004070474FF00000704700BFF4
:10CA70004FEA4102B2F1E04324BFB3F5001CDCF100
:10CA8000FE5C0DD901F0004C4FEAC0024CEA507038
:10CA9000B2F1004F40EB830008BF20F00100704767
:10CAA00011F0804F21D113F13872BCBF01F000406A
:10CAB000704741F480114FEA5252C2F11802C2F19C
:10CAC000200C10FA0CF320FA02F018BF40F001001D
:10CAD0004FEAC1234FEAD32303FA0CFC40EA0C00CF
:10CAE00023FA02F34FEA4303CCE77FEA625307D10C
:10CAF00050EA01331EBF4FF0FE4040F44000704743
:10CB000001F0004040F0FE4040F40000704700BFDC
:10CB1000844641EA000313F003036DD1403A41D348
:10CB200051F8043B40F8043B51F8043B40F8043B07
:10CB300051F8043B40F8043B51F8043B40F8043BF7
:10CB400051F8043B40F8043B51F8043B40F8043BE7
:10CB500051F8043B40F8043B51F8043B40F8043BD7
:10CB600051F8043B40F8043B51F8043B40F8043BC7
:10CB700051F8043B40F8043B51F8043B40F8043BB7
:10CB800051F8043B40F8043B51F8043B40F8043BA7
:10CB900051F8043B40F8043B51F8043B40F8043B97
:10CBA000403ABDD2303211D351F8043B40F8043B37
:10CBB00051F8043B40F8043B51F8043B40F8043B77
:10CBC00051F8043B40F8043B103AEDD20C3205D347
:10CBD00051F8043B40F8043B043AF9D2043208D03F
:10CBE000D2071CBF11F8013B00F8013B01D30B88B1
:10CBF00003806046704700BF082A13D38B078DD08F
:10CC000010F003038AD0C3F10403D21ADB071CBF60
:10CC100011F8013B00F8013B80D331F8023B20F8CA
:10CC2000023B7BE7043AD9D3013A11F8013B00F803
:10CC3000013BF9D20B7803704B7843708B7883708B
:10CC40006046704700000000000000000000000087
:10CC5000EC46A0E8F05F4FF000007047B0E8F05FEE
:10CC6000E546080008BF0120704700BF0000000033
:10CC7000A2EB0300704700BF02780B78012A28BF9F
:10CC80009A42F5D16DE9044540EA0104CDE9026715
:10CC90006FF0000C4FEA447212B380EA010414F002
:10CCA000070F6AD100F0070420F0070004F0030525
:10CCB00021F007014FEAC505F0E8042314F0040F42
:10CCC000F1E804670CFA05F462EA040266EA040675
:10CCD0000AD063EA0403624667EA0407664603E093
:10CCE000F0E80423F1E8046782FA4CF582EA0604CE
:10CCF000A4FA8CF46CBB83FA4CF583EA0705A5FA19
:10CD00008CF595B950E9022351E9026782FA4CF596
:10CD100082EA0604A4FA8CF483FA4CF583EA070548
:10CD2000A5FA8CF52543DBD09CB92DBAB5FA85F46C
:10CD300024F0070427FA04F1DDE9026723FA04F37B
:10CD400003F0FF0001F0FF01FDE80445A0EB010046
:10CD5000704724BAB4FA84F424F0070426FA04F1E4
:10CD6000DDE9026722FA04F202F0FF0001F0FF01A0
:10CD7000FDE80445A0EB0100704714F0030F3CD11F
:10CD800010F0030428D150F8082B51F8083B82FA20
:10CD90004CF582EA0305A5FA8CF55DB950F8042C30
:10CDA00051F8043C82FA4CF582EA0305A5FA8CF5A9
:10CDB000002DE8D02DBAB5FA85F424F0070423FA43
:10CDC00004F122FA04F202F0FF0001F0FF01FDE895
:10CDD0000445A0EB010070474FEAC40420F00300B3
:10CDE00050F8082B21F0030151F8083B0CFA04F429
:10CDF00062EA040263EA0403C9E710F003041AD0EC
:10CE0000A1EB040120F00300E40750F8042B06D046
:10CE10000FD28B785FFAA2F4E41A06D12BB1CB784B
:10CE20005FFAB2F4E41A00D11BB920465DF8104B4A
:10CE3000704701F1040150F8042BCC0721F00301E5
:10CE400051F8043B48D824D222F07F4482FA4CF5B2
:10CE500094EA1325A5FA8CF50AD165B951F8043B7B
:10CE600084EA0204B4EB036F0ED150F8042BEBE715
:10CE70004FEA132355E035F07F454DD10878FDE8A2
:10CE80000445C0F1000070474FEA126203F0FF034F
:10CE900047E002EA1C4482FA4CF594EA1345A5FAED
:10CEA0008CF50AD165B951F8043B84EA0204B4EB6D
:10CEB000034F0CD150F8042BEBE74FEA134330E05B
:10CEC00015EA1C4528D10B884FEA124229E04FEAA7
:10CED000124203EA1C4324E002F0FF0482FA4CF5FC
:10CEE00094EA1365A5FA8CF50AD165B951F8043BAB
:10CEF00084EA0204B4EB032F09D150F8042BEBE7CA
:10CF00004FEA13630DE015F0FF0F05D10B684FEAF0
:10CF1000122223F07F4304E04FF00000FDE80445B7
:10CF2000704712BA1BBA82FA4CF482EA0304A4FADC
:10CF30008CF5B5FA85F402FA04F203FA04F34FEA29
:10CF40001260FDE80445A0EB13607047000000008C
:10CF500090F800F06DE9024520F007016FF0000C39
:10CF600010F0070491F820F040F049804FF00004E1
:10CF70006FF00700D1E9002391F840F000F10800BC
:10CF800082FA4CF2A4FA8CF283FA4CF3A2FA8CF3F4
:10CF90004BBBD1E9022382FA4CF200F10800A4FA5B
:10CFA0008CF283FA4CF3A2FA8CF3E3B9D1E90423AF
:10CFB00082FA4CF200F10800A4FA8CF283FA4CF3E6
:10CFC000A2FA8CF37BB9D1E9062301F1200182FAA0
:10CFD0004CF200F10800A4FA8CF283FA4CF3A2FAA6
:10CFE0008CF3002BC6D0002A04BF04301A4612BAB4
:10CFF000B2FA82F2FDE8024500EBD2007047D1E9B7
:10D00000002304F00305C4F100004FEAC50514F045
:10D01000040F91F840F00CFA05F562EA05021CBF16
:10D0200063EA050362464FF00004A9E70000000030
:10D0300001F0FF01102A2BDB10F0070F08D010F8C9
:10D04000013B013A8B422DD010F0070F42B3F6D1CD
:10D05000F0B441EA012141EA014122F007047FF0E6
:10D0600000070023F0E80256083C85EA010586EA3D
:10D07000010685FA47F5A3FA87F586FA47F6A5FA79
:10D0800087F68EB9EED1F0BC01F0FF0102F0070285
:10D0900032B110F8013B013A83EA010313B1F8D130
:10D0A0000020704701387047002D06BF3546033811
:10D0B000073815F0010F07D1013015F4807F02BF4A
:10D0C000013015F4C03F0130F0BC0138704700BF9B
:10D0D0004A0011D212F5001211D20DD56FF47873F7
:10D0E000B3EB62520ED44FEAC12343F0004343EA4C
:10D0F000505323FA02F070474FF00000704750EA97
:10D10000013002D14FF0FF3070474FF00000704700
:10D1100053B94AB9002908BF00281CBF4FF0FF319E
:10D120004FF0FF3000F084B9ADF1080C6DE904CE8A
:10D1300000F006F8DDF804E0DDE9022304B07047F2
:10D140002DE9F0478C460E460446089D002B50D131
:10D150008A4217466CD9B2FA82FEBEF1000F0BD09C
:10D16000CEF1200420FA04F401FA0EF644EA060C8B
:10D1700002FA0EF700FA0EF44FEA1749220CBCFB34
:10D18000F9F01FFA87F809FB10C642EA064600FBD1
:10D1900008F3B34209D9F61900F1FF3280F0228179
:10D1A000B34240F21F8102383E44F61AA2B2B6FBE7
:10D1B000F9F309FB136642EA064403FB08F8A045AD
:10D1C00009D9E41903F1FF3280F00A81A04540F249
:10D1D0000781023B3C44C8EB040443EA00400021C1
:10D1E000002D62D024FA0EF400232C606B60BDE8A1
:10D1F000F0878B4207D9002D55D0002185E84100EA
:10D200000846BDE8F087B3FA83F1002940F090802A
:10D21000B34202D3824200F2F880841A66EB03061E
:10D220000120B446002D40D085E81010BDE8F087FD
:10D2300012B90127B7FBF2F7B7FA87FEBEF1000F6C
:10D2400035D1F31B4FEA17481FFA87FC0121B3FBC6
:10D25000F8F0220C08FB103642EA06460CFB00F3FD
:10D26000B34207D9F61900F1FF3202D2B34200F2FD
:10D27000CE801046F61AA2B2B6FBF8F308FB13668E
:10D2800042EA06440CFB03FCA44507D9E41903F168
:10D29000FF3202D2A44500F2B5801346CCEB040461
:10D2A00043EA00409CE729462846BDE8F087CEF1D6
:10D2B000200106FA0EF307FA0EF720FA01F94FEAF9
:10D2C0001748CE4049EA0309B6FBF8FA4FEA194479
:10D2D00008FB1A661FFA87FC44EA06430AFB0CF2B5
:10D2E0009A4200FA0EF40AD9DB190AF1FF3180F0F4
:10D2F00087809A4240F28480AAF1020A3B449B1A3A
:10D300001FFA89F9B3FBF8F108FB113349EA03432B
:10D3100001FB0CF69E4207D9DB1901F1FF326BD2FB
:10D320009E4269D902393B449B1B41EA0A418EE780
:10D33000C1F1200E22FA0EF48B40234320FA0EF79F
:10D3400006FA01F44FEA134C26FA0EF63C43B6FBFC
:10D35000FCF9270C0CFB19661FFA83F847EA06460E
:10D3600009FB08F7B74202FA01F200FA01FA08D9FC
:10D37000F61809F1FF3041D2B7423FD9A9F10209AD
:10D380001E44F61BA0B2B6FBFCF40CFB146640EA8C
:10D39000064704FB08F8B84507D9FF1804F1FF3029
:10D3A00028D2B84526D9023C1F4444EA0940C8EBBC
:10D3B0000707A0FB02894F4544464E4614D329D0A7
:10D3C00065B3BAEB040367EB060707FA0EFECB4022
:10D3D000CF404EEA030385E888000021BDE8F087CE
:10D3E0001346F8E61046E0E6B8EB020469EB0306E4
:10D3F0000138E5E70446D8E7114695E78146C0E7DE
:10D400008A467CE7023B3C4448E708460AE7023884
:10D410003E442FE7C245E7D33E46D1E72946BDE863
:10D42000F08700BF000000000000000000000000C6
:10D43000704700BF00000000000000000000000076
:10D44000704700BF00000000000000000000000066
:10D45000704700BF00000000000000000000000056
:10D46000FEE700BF00000000000000000000000018
:10D47000FEE700BF00000000000000000000000008
:10D48000FEE700BF000000000000000000000000F8
:10D49000204B214A214830B500249C60D9684FF6C2
:10D4A000FF0529400A43DA60C2681D491D4D42F05C
:10D4B0008072C2600A6842F001020A6010202022D5
:10D4C00083B0D87783F8222000F002F900F080F8CA
:10D4D00000F09EFB00F0ECFE00F032FF28464021F9
:10D4E00000F006FAA5F1300301229861027784F377
:10D4F000118862B69B690C49996105F1500000944E
:10D500000A4B4FF4EC7100F043FA094B836103B00E
:10D5100030BD00BF00ED00E00003FA05F0ED00E0D3
:10D52000001000E0D01A0020F00C040881D400089C
:10D53000E00C0408000000000000000000000000F3
:10D5400072B6014BD862FEE7A01A0020000000006E
:10D55000F8B5134CA269D37F0BB1013BD377116AA5
:10D56000E369104E01311162A26AB34202F1010275
:10D57000A26213D09D68013D9D607DB920271A6885
:10D58000D968DD605660E26185F3118818698847C3
:10D5900087F31188E3699A68002AF0D0F8BD00BFCC
:10D5A000A01A0020BC1A00200000000000000000AB
:10D5B000034A516853685B1A9842FBD8704700BF12
:10D5C000001000E00000000000000000000000006B
:10D5D000054B4FF0FF30002103F11C0258629962A5
:10D5E000C3E90722704700BFA01A00200000000016
:10D5F00030B40D4DEC690361A368C260994204D94F
:10D600002468C91AA3688B42FAD36368C0E900434F
:10D61000186060608160A3684FF0FF32591AA16002
:10D620006A6230BC704700BFA01A002000000000F2
:10D63000036841689A6830B48568064C2A449A6049
:10D640000B60056800224FF0FF336960C2606362BF
:10D6500030BC7047A01A002000000000000000004D
:10D66000202383F31188037F072B0ED8DFE803F014
:10D67000280D0D2408040D08426A93680133936055
:10D68000D0E900231A600268536010B400224FF002
:10D69000FF3481680C4B446202771B689A688A42A7
:10D6A000FBD25A680021C0E900321060586081F353
:10D6B00011885DF8044B7047436A00221A60E4E762
:10D6C000002383F311887047A01A00200000000097
:10D6D000034B0022C3E90033C3E904339A60704767
:10D6E000A01A002000000000000000000000000060
:10D6F00001460022064B80680A771B689A688242BE
:10D70000FBD25A680846C1E900321160596070477F
:10D71000A01A00200000000000000000000000002F
:10D72000084B99691A6810B408770420C877106804
:10D73000186001244360147710465DF8044B9A6129
:10D74000FEF7E6BCA01A0020000000000000000068
:10D7500030B54B1C87B012D00C4C0D4AA36905465E
:10D7600001A8FFF745FF2846FFF7DAFF049B13B136
:10D7700001A8FFF75DFFA369586A07B030BD034CED
:10D78000FFF7CEFFA369586A07B030BDA01A00208A
:10D7900061D600080000000000000000000000004A
:10D7A000144B70B49E6985680446B0686162854216
:10D7B0004FF000020BD822771B689A689542FBD97C
:10D7C0005A68C4E9003214605C6070BC70473277FC
:10D7D0001A46126891688842FBD95168716001202D
:10D7E00032600E6056602077314620469C6170BCE6
:10D7F000FEF78EBCA01A0020000000000000000010
:10D80000084A93691168DA7F88689B6822B9984250
:10D8100034BF002001207047984294BF00200120AF
:10D82000704700BFA01A00200000000000000000A8
:10D830000D4B186870B402689C691A60A168536047
:10D8400001260425002206779861E57722771B6878
:10D850009A689142FBD95A682146C4E900321460A3
:10D860005C6070BCFEF754BCA01A002000000000F1
:10D870000C4B186830B402689C691A60A168536048
:10D88000012500220577986122771B689A689142EA
:10D89000FBD35A682146C4E9003214605C6030BC96
:10D8A000FEF736BCA01A00200000000000000000B7
:10D8B000044B1A689B6992689B689A4200D870472B
:10D8C000FFF7D6BFA01A00200000000000000000F3
:10D8D000034B9B69DB7F0BB1FFF7CABFFFF7A8BF04
:10D8E000A01A00200000000000000000000000005E
:10D8F00070B40E4C016404226569C2778160002215
:10D90000012102268177C0E90E220262826100F1C4
:10D91000280100F12C024561046186832861606161
:10D92000C0E90A12026370BC704700BFA01A002051
:10D93000F0B4124E049D776964390144C160C1E9B5
:10D9400010350F4B0B668260022104230264012212
:10D950008183C3778277002300F1280100F12C0234
:10D96000C0E90467C0E90E33036283613861706106
:10D970008162C0E90B22F0BC704700BFA01A0020F2
:10D9800029C10008000000000000000000000000A5
:10D99000F8B51D460446202383F3118864390144F9
:10D9A000134E144B7769C1600D64069D4D640B6680
:10D9B00002250423826002648583C377002500F179
:10D9C0002C0300F1280201218177C0E90467C0E936
:10D9D0000E550562856129463861C0E90A23036353
:10D9E0007061FFF7DDFE85F311882046F8BD00BFAA
:10D9F000A01A002029C1000800000000000000005B
:10DA0000202383F31188437F43F0040343770023EB
:10DA100083F31188704700BF000000000000000081
:10DA200008B50146202383F311880820FFF790FEF4
:10DA3000002383F3118808BD0000000000000000EF
:10DA400038B50E4B9C69A36A606204F12805AB42AD
:10DA500007D01A68A2621846FFF74AFEA36AAB42D3
:10DA6000F7D1637F9B0704D1D4E904231A612269AB
:10DA700053610F20BDE83840FFF752BEA01A0020C6
:10DA8000202383F31188FFF7DBBF00BF00000000F5
:10DA900038B50446202383F31188037F0F2B07D06A
:10DAA000084B826A9B6909201A60A362FFF738FE5F
:10DAB000656A002383F31188204600F0C9F82846E0
:10DAC00038BD00BFA01A00200000000000000000C8
:10DAD00010B5054CA369036002465A620320FFF7A4
:10DAE0001FFEA369586A10BDA01A002000000000A4
:10DAF000054B02469B6921B1036003205A62FFF780
:10DB000027BE4FF0FF307047A01A00200000000031
:10DB100003682BB10022026018465962FFF7E8BD86
:10DB2000704700BF0000000000000000000000007F
:10DB300069B1084B10B4024644689B690420C3E9EC
:10DB40000024236053605DF8044BFFF701BE4FF0E3
:10DB5000FF307047A01A0020000000000000000005
:10DB6000026890420AD010B41468046003466360EF
:10DB7000104651625DF8044BFFF7BABD704700BF15
:10DB800038B5036898420BD004460D461A682260E7
:10DB9000184654605D62FFF7ABFD23689C42F5D1E7
:10DBA00038BD00BF000000000000000000000000C1
:10DBB000014B5B6883607047001000E000000000CC
:10DBC0000F4B104A5B68C168F0B48468966F426876
:10DBD0001B1BD0E904459B1BE61845F100070131EA
:10DBE0009342C0E90231C0E9046705D80268934254
:10DBF00038BF0360F0BC70474360F0BC704700BFA3
:10DC0000001000E0A01A002000000000000000004A
:10DC100010B50C4C86B000234FF0FF31002268464F
:10DC2000A367CDE9013303930023CDE904230091D9
:10DC3000FFF7BEFF6846FFF7C3FF029BA36706B06E
:10DC400010BD00BFA01A002000000000000000006E
:10DC50000146202383F31188837F013BDBB2837766
:10DC6000002282F3118813B9037F0F2B00D0704775
:10DC7000437F03F00303012B02D0022B07D0704730
:10DC8000D0E904231A610269536100F069BBD0E94D
:10DC900004231A610269406C536100F0D1BB00BFDC
:10DCA000202383F31188044B1869837F0133837722
:10DCB000002383F311887047A01A002000000000A1
:10DCC00010B5202383F31188074B04699C421DBFC4
:10DCD000A37F0133A3770024002383F31188FFF788
:10DCE000B7FF204610BD00BFA01A002000000000B2
:10DCF0000023C0E900008360704700BF00000000FF
:10DD0000F8B5364A83689569002B3FD0A9689A68B0
:10DD10009142044606D91A7F9960062A3BD0072A09
:10DD200015D042B32646234603E09968AA6891427B
:10DD30002AD31B689C42F8D173680620C5E90063AA
:10DD40001D6075606C62BDE8F840FFF7E9BCD3E97F
:10DD5000000210605E6A18684260324602E0906815
:10DD6000884232D312689642F9D17268C3E90062E0
:10DD700013607360D6E7D3E9001211601968184682
:10DD80004A60FFF7B5FCCDE71E46D5E7EB6BC0E96F
:10DD90000253E863F8BDD3E9000210605E6A1868B8
:10DDA00037464260324602E09068884214D31268D7
:10DDB0009642F9D17A68A968C3E9007213607B6062
:10DDC000B3689A688A42A6D3ACE716467268C3E97C
:10DDD000006213607360A5E71746EBE7A01A002006
:10DDE00008B5202383F31188FFF78AFF002383F30C
:10DDF000118808BD000000000000000000000000C5
:10DE0000174B70B59D69202383F311880468C3689C
:10DE1000EB6384421DD0296C4BB11A68934203D046
:10DE20009268914238BF1146DB68002BF5D103465A
:10DE30002268E66BA96020461A605360C3E9024677
:10DE4000E363FFF755FCFFF733FD002383F31188ED
:10DE500070BD0023A360002383F3118870BD00BF51
:10DE6000A01A0020000000000000000000000000D8
:10DE700030B4202484F31188064D0468AD690C6029
:10DE800000240160C1E90152C1E9034384F3118810
:10DE900030BC7047A01A0020000000000000000005
:10DEA000202383F31188024602E08B4207D01A46F2
:10DEB00013688342F9D1002383F3118870470B68FC
:10DEC0001360002383F31188704700BF0000000037
:10DED000202383F31188054B9A69936B23EA000191
:10DEE0009163002282F3118818407047A01A002025
:10DEF000836B027F19430A2A816309D00B2A00D061
:10DF00007047436A8B43FBD100234362FFF7F0BBAA
:10DF1000436A1942F8D17047000000000000000079
:10DF200070B50468A0420FD006460D46E3682B4347
:10DF3000E36015B12269134203D0D4E90101FFF770
:10DF4000D7FF2468A642F1D170BD00BF00000000D9
:10DF500008B5202383F31188FFF7CAFFFFF7A8FC59
:10DF6000002383F3118808BD0000000000000000BA
:10DF700038B50C4B9D69202383F31188AB6B13EAF2
:10DF8000000406D1044668620A20FFF7C9FBAB6BA8
:10DF90001C4023EA0403AB63002383F3118820466B
:10DFA00038BD00BFA01A00200000000000000000E3
:10DFB000104B70B59E69202383F31188B36B13EA6D
:10DFC00000050ED119B985F31188284670BD70621D
:10DFD00004460A20FFF7BCFB0028F4DBB36B03EA1E
:10DFE000040523EA0503B363002383F3118828465D
:10DFF00070BD00BFA01A002000000000000000005B
:10E0000030B4029C046200250A4485600261C0E9C4
:10E010000000C160C0E90511C36130BC704700BF9A
:10E02000C26800218160C0E905226FF00101FFF79D
:10E03000A7BD00BF000000000000000000000000BD
:10E04000D0E90532934211D0826810B501325C1CD0
:10E05000826044611970D0E904329A4201D3C368E6
:10E0600043610021FFF77CFD002010BD8268002A7B
:10E07000EAD06FF0030070470000000000000000CD
:10E0800070B520230E46044683F31188C3692BB173
:10E09000984703E0FFF74CFD002815DBA5683146E3
:10E0A0002046002DF6D0A169A36825694A1C013BD2
:10E0B000AA42A360A26128BFE368087828BFA361D1
:10E0C000002383F3118870BD85F3118870BD00BFF4
:10E0D0002DE9F04F044683B0894693461D46D0F89B
:10E0E0001C80202787F3118800260197B246B8F1DB
:10E0F000000F05D02046C04702E0FFF719FDE0B948
:10E10000A76829462046002FF7D0A269A368511CB2
:10E11000013BA161A360137809F8013B2369A2695F
:10E120009A4224BFE368A3618AF311880136B3459C
:10E1300005D0019B83F31188D9E787F31188304616
:10E1400003B0BDE8F08F00BF000000000000000039
:10E1500030B4029C82608D18C0E90315C0E9073411
:10E16000C0E90000C0E9051130BC704700000000A4
:10E1700010B4D0E90342121B846144616FF00101C5
:10E1800082605DF8044BFFF7FBBC00BF000000009D
:10E19000F8B504460F461646202383F3118803E0A2
:10E1A000FFF7C6FC002818DBA56831462046002D85
:10E1B000F6D06269A368511C013B6161A3601770CE
:10E1C000D4E904329A4224BFE3686361E36903B18E
:10E1D0009847002080F31188F8BD85F31188F8BDB9
:10E1E00038B5D0E905239A420FD082680569591CD9
:10E1F000013282608161A9421C7801D3C3688361C6
:10E200000021FFF7ADFC204638BD8268002AECD023
:10E210006FF0020038BD00BF0000000000000000E9
:10E220002DE9F04F83B004460D4616460193D0F811
:10E230001C804FF0200989F311880027BA46A36893
:10E2400005F1010B204603B36169A3684A1C013B39
:10E250006261A3602B780B70D4E90431994224BF2A
:10E26000E3686361B8F1000F00D0C0478AF31188FA
:10E27000013E07F1010712D089F31188A3685D46BA
:10E2800005F1010B2046002BDED1019900932046B9
:10E29000FFF74EFC009B0028D1D083F3118838464D
:10E2A00003B0BDE8F08F00BF0000000000000000D8
:10E2B000054A064B0648074922F0070223F00703E8
:10E2C00002600B60704700BF6F75012000000220E4
:10E2D000FC1C0020F81C00200000000000000000D2
:10E2E0000346202282F311880849094A0868126807
:10E2F000073323F00703121A93429ABF1B180B60CF
:10E300000020002383F31188704700BFFC1C00200D
:10E31000F81C0020000000000000000000000000C9
:10E32000024A034B10681B68C01A7047F81C002093
:10E33000FC1C0020000000000000000000000000A5
:10E34000044B054A1A6003F110000022C3E90222BF
:10E35000FFF7CEBC001D0020E1E200080000000035
:10E36000F8B550F8085C05F110070646A0F108045E
:10E3700008353846FFF734FD2B46AB421A6801D00A
:10E38000A34202D21AB1944201D31346F5E746F8EC
:10E39000082C56F8042C1C6056F8080CB118814261
:10E3A0000AD0596801F108021A44944212D0384642
:10E3B000BDE8F840FFF724BD4968B05846F8080C9E
:10E3C00008320A4446F8042C596801F108021A443C
:10E3D0009442ECD156E902020832114418605960A7
:10E3E0003846BDE8F840FFF70BBD00BF0000000055
:10E3F00070B50F4C002818BF044604F110052846DC
:10E400000E46FFF7EDFCA36873B100221446D3E972
:10E41000003001340244002BF9D106B132602846A5
:10E42000FFF7EEFC204670BD1A461C46F5E700BF1C
:10E43000001D00200000000000000000000000009F
:10E44000202383F3118803680B600023016083F3AA
:10E45000118870470000000000000000000000006C
:10E4600080B4094A536823F0010300AF5360EFF30F
:10E470000983683383F30988002383F31188BD4639
:10E480005DF8047B704700BF30EF00E00000000043
:10E4900098B5202300AF83F31188114B5B6813F408
:10E4A000006302D183F3118898BDF1EE103AEFF3C7
:10E4B00009840C4B4FF08072DB6844F8083C44F848
:10E4C0004C2CA4F1680383F30988FFF799F918B17C
:10E4D000054B44F8503C98BD044B44F8503C98BD63
:10E4E00000ED00E030EF00E039C100083CC1000859
:10E4F00008B501F095F90B4801F00AFD00F020F88D
:10E5000000F0C6F800F03CF900F0CAF900F0F0FBAA
:10E5100000F0FEFB00F0DCFA03F012FABDE8084060
:10E5200000F006B8B00E0408000000000000000073
:10E5300001F026BA0000000000000000000000000A
:10E5400001F08EBB00000000000000000000000091
:10E55000F0B40122002300F1180700F11C0600F1BD
:10E56000200500F1240400F128010270436000F14D
:10E57000080200F110038761C6610562446281628E
:10E580008260C26003614361F0BC7047000000001C
:10E5900010B52023044683F31188022303704160E1
:10E5A00001F076FB03232370002383F3118810BD51
:10E5B00010B52023044683F3118801F0A1FB204607
:10E5C000012300F8103B6FF00101FFF7D9FA04F1C5
:10E5D00008006FF00101FFF7D3FAFFF769F9002394
:10E5E00083F3118810BD00BF000000000000000090
:10E5F0002DE9F0411F4604460D469046202383F343
:10E60000118800F108062378042B2946204602D001
:10E6100001F09EFB50B939463046FFF789FA0028D1
:10E62000F1D0002383F31188BDE8F08120464246F3
:10E63000294601F0ADFB002080F31188BDE8F08190
:10E640002DE9F0411F4604460D469046202383F3F2
:10E65000118800F110062378042B2946204602D0A9
:10E6600001F0D6FB50B939463046FFF761FA002871
:10E67000F1D0002383F31188BDE8F08120464246A3
:10E68000294601F0E5FB002080F31188BDE8F08108
:10E6900001F0BEBE0000000000000000000000000D
:10E6A00001220023027043600C30FFF721BB00BF42
:10E6B00010B52023044683F31188416001F0C0FEA9
:10E6C00002232370002383F3118810BD0000000093
:10E6D00010B52023044683F3118801F069FF01235C
:10E6E0002370002383F3118810BD00BF00000000D9
:10E6F000F0B585B004460B9E0C9F4FF0200E8EF3B4
:10E7000011884FF0030E019600250A9E029700968D
:10E71000856080F800E001F0D3FF431C0CBF0523A7
:10E7200002232370002383F3118805B0F0BD00BFDE
:10E73000F0B583B00446089F202585F31188002694
:10E74000042500978660057001F07AFF431C0CBF1A
:10E75000052302232370002383F3118803B0F0BD47
:10E760000C30FFF73DBB00BF0000000000000000C0
:10E770000C30FFF745BB00BF0000000000000000A8
:10E7800002F056BE00000000000000000000000083
:10E790000122002302704360704700BF00000000A8
:10E7A00010B52023044683F31188416002F050FE27
:10E7B00002232370002383F3118810BD00000000A2
:10E7C00010B52023044683F3118802F0A1FE012333
:10E7D0002370002383F3118810BD00BF00000000E8
:10E7E00010B52023044683F3118802F0B1FE032301
:10E7F0002370002383F3118810BD00BF00000000C8
:10E8000008B5202383F3118802F0B2FE002383F3BE
:10E81000118808BD0000000000000000000000009A
:10E820000C30FFF755BC00BF0000000000000000E6
:10E830000C304FF0FF33FFF74BBC00BF000000006F
:10E840003030FFF7EDBC00BF00000000000000000A
:10E8500030304FF0FF33FFF7E3BC00BF0000000093
:10E860000C30FFF70DBC00BF0000000000000000EE
:10E870000C304FF0FF31FFF703BC00BF0000000079
:10E880003030FFF785BC00BF000000000000000032
:10E8900030304FF0FF32FFF77BBC00BF00000000BC
:10E8A00002F05EBF00000000000000000000000059
:10E8B00070B50E4B044682B040F8043B012600942C
:10E8C00015460B46606004F1540104F10C002672F9
:10E8D0008022FFF795FB00942B4604F1D40104F14C
:10E8E00030008022FFF734FC02B070BD100D040828
:10E8F00010B52023044683F3118802F061FF022340
:10E900002372002383F3118810BD00BF00000000B4
:10E9100010B52023044683F3118802F0C1FF0123C0
:10E92000237204F13000FFF723FC04F10C00FFF721
:10E9300077FBFEF7BDFF002383F3118810BD00BFF6
:10E9400038B5436904460D463BB1294604F10C0035
:10E95000FFF776FB00280BDB38BD04210844FFF7E6
:10E96000DFFA294604F10C00FFF76AFB0028F3DA0E
:10E97000201D8021BDE83840FFF7D2BA000000001A
:10E9800010B5046AD4F8542213681978042900D009
:10E9900010BD217A0229FBD110791989012202FACE
:10E9A00000F313EA0102F3D1216CE36BA06BCB1AE5
:10E9B0001B1AEDD082F31188D4F854221179106813
:10E9C00004F1300200F00CFA202383F31188D4F80C
:10E9D0005432BDE810401979186800F029BA00BF18
:10E9E00038B5046AD4F8542213681978042900D081
:10E9F00038BD217A0229FBD1507959890122824000
:10EA00000A40F5D103EB8003A169E069DB68656921
:10EA10005B8A401A411B8B42EAD882F31188B1FB12
:10EA2000F3F1D4F8542203FB01F31068517904F197
:10EA30000C0200F0C5F9202383F31188D4F8543276
:10EA400059791868BDE8384000F0DAB900000000D4
:10EA50000C30FFF73DBB00BF0000000000000000CD
:10EA60000C304FF0FF33FFF733BB00BF0000000056
:10EA70003030FFF7D5BB00BF0000000000000000F1
:10EA800030304FF0FF33FFF7CBBB00BF000000007A
:10EA90000C30FFF7F5BA00BF0000000000000000D6
:10EAA0000C304FF0FF31FFF7EBBA00BF0000000061
:10EAB0003030FFF76DBB00BF000000000000000019
:10EAC00030304FF0FF32FFF763BB00BF00000000A3
:10EAD000704700BF000000000000000000000000C0
:10EAE00010B503460E4A43F8042B82B001220446B7
:10EAF000009000F15401436002720A4B0C304FF455
:10EB00008072FFF77DFA009404F5AA7104F13000D9
:10EB1000054B4FF48072FFF71BFB02B010BD00BF26
:10EB2000300D0408E1E9000881E900080000000058
:10EB30000B68202282F311880A7903EB820290612C
:10EB40004A79093243F822008A7912B103EB820331
:10EB5000986102230372C0F85412002383F31188D2
:10EB6000704700BF0000000000000000000000002F
:10EB700070B5D0F8543200F10C06044630461D68DA
:10EB8000FFF74EFA04F13000FFF7F2FA201D0121E1
:10EB9000FFF7C6F9D4F85432597905EB81032846BA
:10EBA000DB6832465B8A00F00BF9D4F85432284611
:10EBB0005979BDE8704000F023B900BF00000000A3
:10EBC00090F8443003F06003202B01D00020704700
:10EBD00090F84530212B03D0222B09D0202BF5D1E2
:10EBE000064B836307220023C2630364012070473E
:10EBF00000238363C3630364012070470010002077
:10EC0000F8B500EB81039C69BCB10E460546202790
:10EC100087F311880821201DFFF782F9226CE36B2E
:10EC2000A16BD31A5B1A10D105EB8603DB685A6916
:10EC300052681AB9002383F31188F8BD1B8A013B7F
:10EC40001340F7D183F3118802E0002282F3118888
:10EC500004F130023146284600F0C2F887F31188EB
:10EC60003146284600F0E4F8E4E700BF0000000069
:10EC70002DE9F84301F1090350F82360BEB1804645
:10EC80000F464FF0200989F3118804217018FFF70F
:10EC900047F908EB8703B469DA68F5697369518A43
:10ECA0002D1BEC1AA14204D9002383F31188BDE87F
:10ECB000F883002383F31188B4FBF1F306F10C020F
:10ECC00001FB03F34046394600F07AF889F31188D6
:10ECD0003946404600F094F8E6E700BF0000000027
:10ECE000704700BF000000000000000000000000AE
:10ECF00002F026BB00000000000000000000000041
:10ED0000002301220270436083600C30FEF7F0BFE5
:10ED100001F0FEBE00000000000000000000000046
:10ED20000023012202704360C36183620362C362F5
:10ED30004362036303814381704700BF000000000A
:10ED400038B50446202383F3118800254160C5604F
:10ED500005614561856101F0F3FE0223237085F3AF
:10ED6000118838BD00000000000000000000000015
:10ED700010B52023044683F3118801F059FF0123C5
:10ED80002370002383F3118810BD00BF0000000032
:10ED9000536910B42BB100241C605C609C60DC6083
:10EDA0001C6193692BB100241C605C609C60DC607A
:10EDB0001C6100EB81035DF8044BDA6001F0D8BF01
:10EDC00070B400EB81040126E468A4690025E260C8
:10EDD00063602670A56070BC02F0B2B8000000004D
:10EDE00070B400EB81040126E46864690025E260E8
:10EDF00063602670A56070BC02F022B900000000BC
:10EE0000012270B502FA01F344899BB214EA0306A9
:10EE100001D0104670BD2343438102F029FA3046E9
:10EE200070BD00BF000000000000000000000000F6
:10EE3000012270B502FA01F304899BB214EA0306B9
:10EE400001D0104670BD2343038102F021FA304601
:10EE500070BD00BF000000000000000000000000C6
:10EE6000002202210170A0F84C2080F84E2080F88A
:10EE70004F2002814281C26002614261826180F85A
:10EE8000342001F0FDBE00BF0000000000000000C3
:10EE9000F8B50023044680F8343000F1440202F053
:10EEA0003FF863689B68002B36D0204698470028BF
:10EEB00032D0E06B94F8443094F84B1094F84A2028
:10EEC00042EA012282423CBFE26310461A0600F188
:10EED000AB80002800F08B80E368A56B9B69002263
:10EEE000042184F834101146DD6058601A709A606D
:10EEF000204602F025F8202383F31188638913F05C
:10EF0000010105D143F001036381204602F0B0F90D
:10EF1000002383F31188F8BD94F8443013F06007A0
:10EF20001E4611D00021204602F0DAF900212046C9
:10EF300002F0C6F963681B6813B1052120469847A3
:10EF4000062384F83430F8BD94F8450003F07F02BE
:10EF500042EA0025B5F5407F00F0EB8016D9B5F503
:10EF6000C06F00F0CE802FD9B5F5106F76D040F687
:10EF70000242954200F0EF80B5F5006FD2D104F166
:10EF80004F0201202764A263E06395E7022D00F0A1
:10EF9000A28040F29780B5F5807F00F08480B5F5BF
:10EFA000817FBFD194F84630002BBBD194F8483014
:10EFB00013F00F0115D01E06204600F1F48002F078
:10EFC0009FF994F844600CE040F202339D4257D020
:10EFD000B5F5A06FA6D1B4F84430B3F5A06F00F03A
:10EFE000D0800023A363E363236433062AD4E36859
:10EFF0005A690521002384F8341019461370D36030
:10F0000053609360204602F01BF8202383F311889D
:10F01000238913F001017FF47BAF43F001032381C7
:10F02000204602F035F973E760B1E368A56B5B69D0
:10F030000022012184F834101146DD6058601A70F6
:10F040009A60DFE7E3689A690321002384F83410AB
:10F0500019461370D3605360936049E794F84630C3
:10F0600084F84F30002B7DD10323237063681B6825
:10F07000002BB6D002212046984794F84460B0E7B0
:10F0800094F84630002B7FF44DAF94F8483013F0DD
:10F090000F01A6D01D06204600F18A8002F010F96B
:10F0A00094F844609DE794F84630012B7FF43AAF22
:10F0B000B4F84C30A76323F00203E7632764A4F895
:10F0C0004C3092E7002D43D104F14C02022025641C
:10F0D000A263E063F0E694F8481011F0800F204638
:10F0E00001F00F0141D101F0FBFE012841D00228BF
:10F0F0007FF418AF314BA363E063276494F8443086
:10F10000DAE694F84900616894F848304D6894F85C
:10F11000462094F8471043EA00232046A8470028D9
:10F120003FF400AF09C82764A363E06394F8443058
:10F13000C2E694F84630012B7FF4F4AEB4F84C30BC
:10F14000A76343F00203E7632764A4F84C304CE75D
:10F15000012D7FF4E7AE1A4AA26302200022E06389
:10F160002264A9E60423237080E701F0C9FE012888
:10F17000BDD1144BA363E5632764284694F844305B
:10F180009AE694F8463084F84E30204601F0E0FDCF
:10F1900063681B6813B1012120469847032394F844
:10F1A000446023701DE702F0BBF894F8446018E750
:10F1B00002F096F894F8446013E700BF600D04086D
:10F1C000500D0408700D040800000000000000004D
:10F1D00090F8343010B50446062B15D8DFE803F05C
:10F1E000043B1C0404150400002102F079F80021FE
:10F1F000204602F065F863681B6813B105212046BC
:10F200009847062384F8343010BD036C03B1984747
:10F21000002384F8343010BDC3689A6903210023A9
:10F2200084F83410204619461370D36053609360FD
:10F2300001F086FE202383F31188638913F0010116
:10F2400005D143F001036381204602F011F8002349
:10F2500083F3118810BD90F84B1090F84A30C26BC0
:10F2600043EA01239342C368D7D9188AB2FBF0F16D
:10F2700000FB1122002AD0D15B6911461A70DA60B6
:10F280005A609A60204601F0DBFE202383F3118848
:10F29000238913F0010105D143F0010323812046A6
:10F2A00001F0F6FF002383F31188022384F8343041
:10F2B00010BD00BF000000000000000000000000C2
:10F2C00090F83420062A0CD80123934013F0670FDE
:10F2D00010B5044612D113F0080203D1DB061ED488
:10F2E00010BD7047C3689B699B68002BF8D1036C05
:10F2F00003B19847002384F8343010BD002101F099
:10F30000EFFF0021204601F0DBFF63681B6813B1AB
:10F31000052120469847062384F8343010BDC36881
:10F320005B69052180F834101A70DA605A609A60BF
:10F33000114601F085FE202383F31188238913F001
:10F34000010103D0002383F3118810BD43F00103B2
:10F350002381204601F09CFFF4E700BF000000007D
:10F3600043099B0010B403F1604300F1604404F5CD
:10F37000614403F56143090100F01F00012202FA14
:10F3800000F0C9B284F80013C3F8800118605DF87A
:10F39000044B704700000000000000000000000067
:10F3A0000849430910B4203300F01F040122084427
:10F3B000A240002441F8232080F800435DF8044B6C
:10F3C000704700BF00E100E0000000000000000006
:10F3D00000F1604000F56D400901C9B20176704747
:10F3E00008B5074B074A196801F03D019960136899
:10F3F0000BB150689847BDE80840FFF749B800BF17
:10F4000000600240201D00200000000000000000FD
:10F41000084B094819688268890901F03D0110B557
:10F420008C019C600AB1C0689047BDE81040FFF7AE
:10F430002FB800BF00600240201D00200000000027
:10F44000084B094819680269090C01F03D0110B523
:10F450000C049C600AB140699047BDE81040FFF77A
:10F4600017B800BF00600240201D0020000000000F
:10F47000084B094819688269890D01F03D0110B5F2
:10F480008C059C600AB1C0699047BDE81040FEF74A
:10F49000FFBF00BF00600240201D002000000000F0
:10F4A00008B5074B07485968026A01F03D01D96069
:10F4B0000AB1406A9047BDE80840FEF7E9BF00BFC7
:10F4C00000600240201D002000000000000000003D
:10F4D000084B09485968826A890901F03D0110B555
:10F4E0008C01DC600AB1C06A9047BDE81040FEF7AD
:10F4F000CFBF00BF00600240201D002000000000C0
:10F50000084B09485968026B090C01F03D0110B520
:10F510000C04DC600AB1406B9047BDE81040FEF778
:10F52000B7BF00BF00600240201D002000000000A7
:10F53000084B09485968826B890D01F03D0110B5EF
:10F540008C05DC600AB1C06B9047BDE81040FEF747
:10F550009FBF00BF00600240201D0020000000008F
:10F5600008B5074B07481968026C01F03D01996026
:10F570000AB1406C9047BDE80840FEF789BF00BF64
:10F5800000640240201D0020000000000000000078
:10F59000084B09481968826C890901F03D0110B5D2
:10F5A0008C019C600AB1C06C9047BDE81040FEF72A
:10F5B0006FBF00BF00640240201D0020000000005B
:10F5C000084B09481968026D090C01F03D0110B59E
:10F5D0000C049C600AB1406D9047BDE81040FEF7F6
:10F5E00057BF00BF00640240201D00200000000043
:10F5F000084B09481968826D890D01F03D0110B56D
:10F600008C059C600AB1C06D9047BDE81040FEF7C4
:10F610003FBF00BF00640240201D0020000000002A
:10F6200008B5074B07485968026E01F03D01D960E3
:10F630000AB1406E9047BDE80840FEF729BF00BF01
:10F6400000640240201D00200000000000000000B7
:10F65000084B09485968826E890901F03D0110B5CF
:10F660008C01DC600AB1C06E9047BDE81040FEF727
:10F670000FBF00BF00640240201D002000000000FA
:10F68000084B09485968026F090C01F03D0110B59B
:10F690000C04DC600AB1406F9047BDE81040FEF7F3
:10F6A000F7BE00BF00640240201D002000000000E3
:10F6B000084B09485968826F890D01F03D0110B56A
:10F6C0008C05DC600AB1C06F9047BDE81040FEF7C2
:10F6D000DFBE00BF00640240201D002000000000CB
:10F6E0000E490F4A0F48002310B40B600E4C194608
:10F6F00001E052F80C0C016044F833100133102B78
:10F7000002F10C02F5D10949094A5DF8044B4FF0AA
:10F71000FF338B60CB609360D3607047A01D0020E7
:10F720008C0D040810600240201D00200060024083
:10F730000064024000000000000000000000000023
:10F74000F8B51F4F467A3D68012404FA06FE1EEA0A
:10F75000050F31D11B4C4EEA050504EBC60E15F022
:10F76000FF0F3D6044F83620CEF8043004D0164C2C
:10F77000236B43F40013236315F47F4F16D1056800
:10F780002B6823F01F032B602B6813F00104FBD1BF
:10F79000077A46683D23BB40212733602C606F61A8
:10F7A00062B1807AFFF7DCFD2046F8BD064C236B82
:10F7B00043F480032363E2E72046F8BD1046F8BD1A
:10F7C000A01D0020201D0020003802400000000085
:10F7D00010B50446807AFFF7E3FD0C49607A0A68A9
:10F7E0000123834022EA030313F0FF0F0B6004D1CF
:10F7F00007490A6B22F400120A6313F47F4F04D105
:10F80000034A136B23F48003136310BDA01D002073
:10F81000003802400000000000000000000000006E
:10F82000184B4FF0FF311A69002210B519611A61A7
:10F83000586959615A61186A134C60F08050186217
:10F840001A62586A59625A62196C41F080511964FF
:10F85000216841F480712160196F01F44071B1F5A4
:10F86000007F03D04FF4803119671A67064C636834
:10F8700023F400736360FFF733FF236843F0F00362
:10F88000236010BD003802400070004000000000FE
:10F890002C492D4B4FF080504FF4404208641A60C1
:10F8A0000B6843F001030B600A68264B9007FBD5F9
:10F8B0009A6822F003029A609A689A6019468B68E7
:10F8C000204A13F00C03FAD1116801F0F90111601C
:10F8D0009360136843F4803313601168194B8903F4
:10F8E000FBD55A6F42F001025A675A6F15499007CB
:10F8F000FBD5164B4B600B68134A43F080730B60CB
:10F9000053685904FCD50F490A680E4B9201FBD588
:10F910000F4A1049996040F2057111609A6842F0EF
:10F9200002029A601A469368064903F00C03082BFA
:10F93000F9D14B6C43F480434B644B6E43F48043EA
:10F940004B66704700380240007000400854400782
:10F95000003C024000940838000000000000000055
:10F9600008B5202383F31188FDF7F2FD002383F30C
:10F970001188BDE80840FEF78BBD00BF0000000005
:10F98000054B44F29F11002007225960986008211E
:10F990000B201A60FFF71CBD10E000E00000000023
:10F9A000F0B5434C434D236C43F000732364D5F80A
:10F9B00000321B0C1B0443F0010343EA0023C5F88B
:10F9C000003200295AD00023C5F81C321846C5F869
:10F9D00004321C46C5F80C32C5F81432C30003F1DA
:10F9E000804303F5C84301301C28C3F84042C3F8E4
:10F9F0004442F3D12F4D0026012710681479C3002B
:10FA000003F1804314F0010F03F5C84306F101062A
:10FA100007FA00F005D0D5F804E240EA0E0EC5F86A
:10FA200004E214F0020F05D0D5F80CE240EA0E0E05
:10FA3000C5F80CE2640704D5D5F814420443C5F8B0
:10FA400014429468C3F84042D468C3F84442D5F8DD
:10FA50001C32B14240EA030002F11002C5F81C0258
:10FA6000CBD11449124AD1F8003223F00103C1F876
:10FA70000032136C23F000731364F0BDC20002F176
:10FA80008042012302F5C842834043F00103C5F8D8
:10FA90004012C5F84412C2F84012C2F84412C5F828
:10FAA0000412C5F81412C5F80C32C5F81C32D8E798
:10FAB0000038024000640040000000000000000028
:10FAC00010B50C4C0C49E26A2023916083F3118835
:10FAD000002104F10800FEF753F804F11C00012195
:10FAE000FEF71EFA002383F31188BDE81040FEF7ED
:10FAF000CFBC00BFA41D00200101010000000000D8
:10FB000038B5164DEB6ADC68A20711D1E3060BD5B8
:10FB1000EB6A1021D960202383F311881048FEF787
:10FB2000FFF9002383F31188BDE83840FEF7B0BC2D
:10FB30005A6922F002025A61202383F311880021BE
:10FB400005F11000FEF71CF805F118000121FEF781
:10FB5000E7F9002383F31188D8E700BFA41D002034
:10FB6000C41D002000000000000000000000000094
:10FB700038B5164DEB6A1C69A20711D1E3060BD507
:10FB8000EB6A10211961202383F311881048FEF7D6
:10FB9000C7F9002383F31188BDE83840FEF778BC2D
:10FBA0005A6922F010025A61202383F31188002140
:10FBB00005F11000FDF7E4FF05F118000221FEF742
:10FBC000AFF9002383F31188D8E700BFA41D0020FC
:10FBD000C41D002000000000000000000000000024
:10FBE00038B51B4DEB6A5C681C225A6022071DD495
:10FBF000630717D5EA6A9369916921F070019161F1
:10FC000013F0700F03F0070118BF41F00801202224
:10FC100082F311880F4841EA0341FEF781F900237E
:10FC200083F31188BDE83840FEF732BC1A682846D5
:10FC300022F00202032100F8281B20211A6081F320
:10FC400011880021FEF76CF9002383F31188CFE7B8
:10FC5000A41D0020C41D00200000000000000000C2
:10FC600010B5064C2046FEF773FC0022044BE362FD
:10FC700011460E20BDE81040FFF792BEA41D0020E3
:10FC800000640040000000000000000000000000D0
:10FC9000184B984210B5044615D0E36A01221A6049
:10FCA0005A68D10707D401210820FDF751FDE36A06
:10FCB0005A68D207F7D562680F4950681268D86150
:10FCC0001A60596110BD0B211320FFF749FB0B216E
:10FCD0001420FFF745FB0B211520FFF741FB0B21FB
:10FCE0001620FFF73DFB054A136C43F000731364C5
:10FCF000D3E700BFA41D00205B8F01000038024045
:10FD000008B50378032B00D008BD0D4B9842FBD1FA
:10FD10000C4B0D4A1A6000225A611320FFF740FB7A
:10FD20001420FFF73DFB1520FFF73AFB1620FFF7E5
:10FD300037FB064A136C23F000731364E4E700BF3B
:10FD4000A41D0020006400400200010000380240B1
:10FD500003291AD8DFE801F0110C0702C36A98687A
:10FD6000C0F300707047C36A9868C0F3C060704702
:10FD7000C36A9868C0F380607047C36A9B6813F0D9
:10FD8000E05F14BF0120002070470020704700BFD3
:10FD900010B403291BD8DFE801F02E2A1D02C16A26
:10FDA00001F5D07110788406C0F300131AD5546899
:10FDB0005B0043EAC40343F0040300F00F00486013
:10FDC00090688860D268CA6043F001030B605DF8F8
:10FDD000044B7047C16A1078840601F5C871C0F3FE
:10FDE0000013E4D494885B0043EA4453E5E7C16A16
:10FDF00001F5C071D6E7C16A8B68C3F3016318339C
:10FE000001EB0311CEE700BF00000000000000007E
:10FE1000012911D00AD3022906D1C36A186910F04A
:10FE2000030018BF0120704700207047C36ADA68DA
:10FE30009207F3D001207047C36AD86810F003001E
:10FE400018BF0120704700BF000000000000000044
:10FE500010B471BBC36AD968890731D0D3F8B041F7
:10FE6000D3F8B411D3F8B831D360C36AD3F8BC3136
:10FE70001361C36A2020D860D86880073FD0137907
:10FE8000600860F30413A00860F3451313719B0628
:10FE90002FD59368E40864F31C03936013795DF82D
:10FEA000044B080A61F30303090C137110705180AD
:10FEB0007047012928D0022928D05DF8044B7047EB
:10FEC00019698C07F9D0D3F8C041D3F8C411D3F81D
:10FED000C831D360C36AD3F8CC311361C36A202020
:10FEE000186118698007CAD1586940F0100058613C
:10FEF000C5E71389640D64F30A031381CEE75869DB
:10FF000040F002005861BAE7C36AA7E7C36ADAE7BC
:10FF1000F0B4654D654C2F6B6549664A664B40F2FF
:10FF2000FF1637432F632F6D3E432E65456865608E
:10FF30008568A560C568E5600569656145692562F4
:10FF40008569656205682560046A4C60446A8C6056
:10FF5000846ACC60C46A4C61046B0C62446B4C6272
:10FF6000C4690C60C16B5160016C9160416CD160DF
:10FF7000816C5161C16C1162016D5162816B1160C4
:10FF8000826D5A60C26D9A60026EDA60426E5A618A
:10FF9000826E1A62C26E5A62426D1A60426FC3F874
:10FFA0000424826FC3F80824C26FC3F80C24D0F86D
:10FFB0008020C3F81424D0F88420C3F82024D0F87B
:10FFC0008820C3F82424026FC3F80024D0F89020BE
:10FFD000C3F80428D0F89420C3F80828D0F8982053
:10FFE000C3F80C28D0F89C20C3F81428D0F8A0201F
:10FFF000C3F82028D0F8A420C3F82428D0F88C20F7
:020000040801F1
:10000000C3F8002803F54063D0F8AC205A60D0F85C
:10001000B0209A60D0F8B420DA60D0F8B8205A61E5
:10002000D0F8BC201A62D0F8C0205A62D0F8A820BC
:100030001A60D0F8C820C3F80424D0F8CC20C3F844
:100040000824D0F8D020C3F80C24D0F8D420C3F86A
:100050001424D0F8D820C3F82024D0F8DC20C3F82A
:100060002424D0F8C420C3F80024D0F8E420C3F836
:100070000428D0F8E820C3F80828D0F8EC20C3F80A
:100080000C28D0F8F020C3F81428D0F8F420C3F8D6
:100090002028D0F8F820C3F82428D0F8E020C3F8AE
:1000A0000028F0BC704700BF00380240000002404A
:1000B0000004024000080240000C02400000000062
:1000C0002DE9F04F4FF00F0C02F0030EC2F3800742
:1000D000C2F3C106C2F341150024C2F3C3124FF0AC
:1000E00001094FF0030830E0D0F820B02BEA0303F9
:1000F00043EA0A030362436809FA04FA23EA0A039B
:100100003B4343606300D0F808A008FA03F3DB43E5
:100110000AEA030A4AEA060AC0F808A0D0F80CA0C6
:1001200003EA0A0A4AEA050AC0F80CA0D0F800A0BF
:1001300003EA0A0343EA0E030360490819D07F006B
:10014000B600AD004FEA8E0E013404F007039B00A9
:1001500011F0010F02FA03FA0CFA03F3EDD0072CA9
:10016000C2D9D0F824B02BEA030343EA0A0343625E
:10017000C1E7BDE8F08F00BF0000000000000000F4
:1001800011F00C0F38B50546446B12D1296B0A6883
:10019000136823F01F0313601368DB07FCD4087A8D
:1001A0004A683D2383401360636843F400736360CF
:1001B00038BD0248FDF7C4F9E8E700BF400E040867
:1001C00011F00C0F70B50646456B25D1F26A136825
:1001D000196821F01F011960196811F00104FBD1A1
:1001E000117A52683D238B4013606B6823F480536F
:1001F0006B602B6823F480632B602B6843F40073DF
:100200002B60202383F3118806F11C002146FDF7A3
:100210007FFC84F3118870BD0148FDF791F9D5E7A3
:10022000400E040800000000000000000000000074
:100230003A483B4A70B5446BA369656945EA034394
:1002400023F07F4393424CD01ED8073A93423CD0D0
:100250000132934210D16268C36A22F400721B68B3
:1002600062601A6842F001021A60626842F48052C9
:1002700062605B68012B4BD915F00A0F18BFA369A8
:10028000BDE87040FEF704B9264A934212D002320C
:100290009342F1D1C36A1B685E683EB32368028C47
:1002A00043F4A06342F0010202842360BDE8704081
:1002B000FEF7EEB86368026B23F4007312686360A4
:1002C000136843F001031360D6E7038C1A0A0BD0BE
:1002D00003F0010343F0F00302F00602134323612D
:1002E000CAE7038CC3F347032361C5E7636823F4BC
:1002F00000736360236843F400732360202383F357
:1003000011881C303146FDF703FC86F31188B3E7F2
:10031000236823F480632360AEE700BFD41D002070
:100320000800030082000700000000000000000039
:100330003348F8B5446B076B66693A68B1B201F4AB
:100340005F43DB436361136823F01F03136013688B
:10035000DB07FCD43A7AC56A7F683D2393402A685C
:100360003B60136823F01F031360136813F001034D
:10037000FBD12F7A6D683D22BA40CF052A6048BF75
:1003800001238D05836044BF43F0020383604A0567
:100390000AD5626822F400726260226843F00403A6
:1003A00042F40072226083600F0544BF43F00803EB
:1003B00083604D0444BF43F020038360CC0413D515
:1003C00043F010033104836016D4202383F3118893
:1003D0006FF001010B48FDF79BFB002383F31188AD
:1003E000BDE8F840FEF754B8320405D4002BECD138
:1003F000BDE8F840FEF74CB843F040038360E4E703
:10040000D41D0020F01D00200000000000000000AE
:1004100010B5074C2046FEF743F9064B064A6263C7
:10042000002103F13C02E161E362226310BD00BFE1
:10043000D41D0020980D0408005800400000000062
:10044000F8B50378456B40F256428262012B40F2C8
:100450001642044642623CD02B46E16A226B606839
:100460000F68D2F800E04168494E05F11002BA6009
:100470004FF41064CEF808204FF4004700222F609C
:100480002A606C605F684FF6C0743C40077A5C601D
:100490005C68B14244F02A045C604EDD3D4CA142F0
:1004A00007DC022F68D0032F59D048F6FF720D21C8
:1004B0001962DA6101781A68022992B249D00329D7
:1004C00044D0012935D01A602B6843F001032B601A
:1004D000F8BD314B9842BFD1304EC06A336A304AC2
:1004E00043F4800300213362234631620521FFF784
:1004F00027F92C4A206B23460521FFF721F9336C9D
:1005000043F48003336405212120FEF729FF0521F0
:100510002220FEF725FF616AA26A636B41F06061E9
:1005200042F0606241F4403142F440326162A262C2
:1005300093E722F00A0292B2C5E72B2449001A4A37
:100540001C62B2FBF1F2C2F30B02B2E742F00A0204
:10055000B9E722F0080292B242F00202B3E701EBDF
:10056000810202EB8201104AB2FBF1F26FEA824291
:100570006FEA924292B29AE701EB41020A49B1FB5B
:10058000F2F26FEA42426FEA524292B28FE700BF44
:10059000A0860100801A0600D41D00200038024009
:1005A000C10101088101010880DE80020000000015
:1005B0000378012B2FD0016B436B0A6870B50024C0
:1005C0004FF400451D601C605C605C61136823F0A3
:1005D0001F0313601368DC07FCD40E7AC56A4C68ED
:1005E0002A683D23B3402360136823F01F03136080
:1005F0001368DB07FCD40446287A6A683D238340ED
:1006000013600846FFF7E4F8E06AFFF7E1F8084BEB
:100610009C4201D070BD70472120FEF7C1FE222010
:10062000FEF7BEFE034A136C23F480031364F1E764
:10063000D41D00200038024000000000000000002F
:100640004900F0B541F0010100250184446B85604B
:10065000DDF814E085F31188C66A416A3768144EE4
:100660003960FA607B602A46B76A202501E082F390
:10067000118885F31188A369990702D423689B0523
:1006800007D5B36ADB1BB3F5FA7FF0D34FF0FF3029
:10069000F0BD636843F400736360236843F4A063B0
:1006A000714623601C30BDE8F040FDF721BA00BF61
:1006B000A01A002000000000000000000000000060
:1006C0002DE9F04349000025164607AA01849C46FF
:1006D000446B856092E8044185F31188016BC76A19
:1006E00009683F68836A0B60D0F82490CE60164E8C
:1006F000C1F804C0C7F80090FA60C7F804802A4621
:10070000B76A202501E082F3118885F31188A36977
:10071000990702D423689B0508D5B36ADB1BB3F5A0
:10072000FA7FF0D34FF0FF30BDE8F083636843F405
:1007300000736360236843F48073714623601C3048
:10074000BDE8F043FDF7D4B9A01A00200000000076
:100750002DE9F04FB44BB5499A69D0F850909161AA
:1007600087B0202383F31188019300F16003CA4608
:100770000593814699F80030012B06D0D9F85C30FA
:1007800063B9DAF81430DB0608D4DAF818300598C3
:1007900043F01003CAF81830FDF79AF9002383F3E9
:1007A00011889B46DAF8143013F0100324D0D9F8DE
:1007B0005060336A03F4F012B2F5802F32D0B2F5F4
:1007C000402FEFD103F00F0209EB8202C3F30A13AB
:1007D000D26803339B08106AE4D006F580560222E3
:1007E000316812B140F8041B013A013BF8D1DAF844
:1007F000143013F01003DAD1D9F85C20012101FA8A
:100800000BF11142039169D10BF101030293D9F865
:1008100054309DF808B09B689B45C3D9019B83F376
:100820001188A7E703F00F0509EB8505C3F30A1448
:10083000EB6899690B78DBB94B688A68C868033341
:100840009A1AE31C9B084FEA920209D006F58056DB
:100850008646376812B14EF8047B013A013BF8D165
:100860002044C860EB689A6993682344936099E7D1
:10087000C86824B3426906F580562746032F06D977
:1008800003699A4203D3C2684261032FF8D8D6F8AD
:1008900000E000232EFA03F102F1010CC0F814C0AD
:1008A000117002694169914224BFC2684261013FEF
:1008B00003F1080303D0202B4269EBD1DEE7019B53
:1008C00083F311888368234483600021FDF758F97E
:1008D000FCF7EEFF002383F31188C3E7019A82F34C
:1008E0001188DAF80810D9F85C20039821F001018A
:1008F00022EA0002CAF80810C9F85C2083F31188C4
:1009000009EB8B07FC68626991685368994280F033
:10091000B580D9F85000268A4FEA4B1800EB08043E
:100920005B1AD4F818199E4228BF1E468BB2B6EB4C
:10093000830F0BF1010302932FD81B03CDF810A0F6
:100940009A461378002B3DD1F31CD4689B0800EB2A
:100950000A0E18BF214605D051F8040BCEF800004E
:10096000013BF9D13444D460FC68626993685168F2
:100970003344994293607DD9D9F85000248A00EB22
:100980000805CE1AD5F81839A64228BF26469BB2CC
:10099000B6EB830FD5D9DDF810A00022019B83F3BD
:1009A0001188DAF8083043F00103CAF808302AB990
:1009B000DAF83438039A1A43CAF83428002383F348
:1009C000118824E700EB0A0ED068F6B1D0F810C009
:1009D000324691082CD1836900210C465D1C85614B
:1009E0001B78654503FA01F344EA030424BFC36896
:1009F0008361013A01F1080103D0202901D0836904
:100A0000ECE7CEF80040002AE3D1019B83F3118884
:100A10008368334483600021FDF7B2F8FCF748FF98
:100A2000002383F311889FE7A01A0020600E0408BA
:100A30008469BCEB040348BF03339B108B4228BF7F
:100A40000B464FEA830BCBEB02023BB1214651F838
:100A5000045BCEF80050013BF9D15C44A4458461AD
:100A600004D8C3688361002AB3D1CEE7002ACCD072
:100A70002346B1E7DDF810A001228FE70BF1010357
:100A80000293F9E7000000000000000000000000F1
:100A9000F0B50024D1F808E025464FF0804C4FF027
:100AA000FF3714E0C1F80059C218C2F81059C2F853
:100AB0000879D1F8006B002E17DBC1F8005B034406
:100AC00001347445C3F8105BC3F8087B14D8630184
:100AD000C118D1F80029002AE4DAC1F800C90E468D
:100AE000D6F808299207FBD5DEE7C1F800CBD2F88B
:100AF000081BC906FBD5E2E74FF00113C0F81C380C
:100B0000F0BD00BF00000000000000000000000079
:100B100010B5064C2046FEF703F94FF0A043044AF7
:100B20002365002362652366636610BD101E0020E6
:100B3000500E04080000000000000000000000004B
:100B40000378012B00D0704770B5314B066D984289
:100B500082B0054618BF34463AD000232D482E49AE
:100B6000EB654FF43412F060C6F800182020C6F888
:100B7000003EB263FCF71CFD012323612369DB0700
:100B8000FCD40C20FCF714FD2369002BFCDA0024B4
:100B9000B460696D286DFFF77BFF6B68C6F810487D
:100BA000DB68C6F81448C6F81C486BB143F208036A
:100BB000B3616B6E4FF0FF327261D3B1B36843F033
:100BC0000103B36002B070BD4FF44053B361F0E76E
:100BD000124B5A6B42F080025A635A69002042F06D
:100BE00080025A610E2158614320FEF7B9FB2C6D3B
:100BF000B3E70B4B009502224FF4067105F1680034
:100C0000FCF796FE6866FCF773FDFCF751FED5E72E
:100C1000101E002040140040030020020038024053
:100C20005107010800000000000000000000000063
:100C300038B50378012B0ED0056D416D044628466A
:100C4000FFF726FF094A00239442E365C5F81C38E4
:100C5000AB60AB6300D038BD4320FEF7A1FB044A74
:100C6000536B23F080035363F5E700BF101E002091
:100C700000380240000000000000000000000000FA
:100C8000F8B5056D202307462B612B6913F020046E
:100C9000FBD10C20FCF78CFCD7F854E0DEF80860A0
:100CA00023464FF00060FF2105EB43120133B342AE
:100CB000C2F80009C2F8000BC2F80819C2F8081BF4
:100CC000F2D9DEF800304FF0FF324FF00111C5F8D5
:100CD00018283A6DC5F81C18BB65DEF800306B6249
:100CE00010231361136913F01004FBD10C20FCF7DF
:100CF0005FFCD5F80038114A114823F4FE63C5F8AB
:100D00000038AB6943F4402343F010030921AB6181
:100D1000C5F81018C5F81418F860C5F8104BC5F8D8
:100D2000002BC5F81049C5F80029BB6D03F110026E
:100D300043F48013BA65AB62F8BD00BF4080001079
:100D4000700E040800000000000000000000000019
:100D5000026D90F84E10D2F8003823F4FE6343EA97
:100D60000113C2F8003870470000000000000000C6
:100D70002DE9F8430FFA81F800EB88070D46FB6870
:100D80001A6802F00302022A5ED0032A5ED04C4E9B
:100D90004C49012A18BF0E46046DD9686A0104EB5C
:100DA000020E4FF0000CCEF810CB002973D0B3F830
:100DB00012E005F1580149014EEA060E44F801E03F
:100DC00005F1100CD4F81C184FF0010E0EFA0CFEB1
:100DD0004EEA0101C4F81C18224499684FF0000E35
:100DE000C2F810E9002933D0998B1A8A01294FEAF9
:100DF0009203826D88BF4B4305F13F0103EB020E66
:100E000004EB810142EA0343AA0142F02002C0F848
:100E100058E04B60226123699A06FCD40C20FCF751
:100E2000C7FBFB681A8A05F1480342EA85525B0159
:100E30003243E2500121D4F81C3801FA05F51D4374
:100E4000C4F81C58BDE8F8831F4EA5E71F4EA3E762
:100E500005F13F0204EB8202AB011D49516043F0F2
:100E60002003236123699B06FCD404EB48180C2063
:100E7000FCF79EFBD8F8003923F40043C8F800398A
:100E8000D4F81C38012202FA05F523EA0503C4F858
:100E90001C38BDE8F88304EB481105F11009D1F8BE
:100EA00000CB2CF4004CC1F800CBD4F81C184FF048
:100EB000010E0EFA09FE21EA0E01C4F81C188BE798
:100EC00000800410008000100080081000800C10CA
:100ED000000400020000000000000000000000000C
:100EE0005831036D49015B5813F4004004D013F4EA
:100EF000001F14BF01200220704700BF0000000047
:100F00004831036D49015B5813F4004004D013F4D9
:100F1000001F14BF01200220704700BF0000000026
:100F200000EB8101CB681B6A19685B685360116034
:100F3000704700BF0000000000000000000000003B
:100F400000EB810330B4DD68AC696368236131B9BB
:100F5000402B04D940236360094A3F2402E05C1E11
:100F600043F0C042006D6D8A00EB41112B19B3FBB9
:100F7000F5F342EAC343C1F8103B30BC704700BFF1
:100F800040000060000000000000000000000000C1
:100F90002DE9F041264E376D07EB40130546D3F897
:100FA000084BC3F8084B200703D5D7F814381907A6
:100FB0001DD4E20719D5D7F81438DB0715D506EB91
:100FC00085061B4CF1688B6958681A69904216D3E4
:100FD0006289CE680123AB4022EA0303638129467C
:100FE00020463346BDE8F0411847BDE8F08106EBE6
:100FF00085032946DB6830465B689847D9E7121AB3
:1010000000265A609E6029462046FFF799FF20235C
:1010100083F31188236D03EB4515D5F8003B43F0AE
:101020008063C5F8003B86F31188BDE8F08100BFFE
:10103000101E002000000000000000000000000062
:1010400000EB810310B4DC68626953681361ABB1D3
:1010500071B15A1E006D248A00EB41112244B2FB8B
:10106000F4F243EAC243C1F810395DF8044B70470B
:10107000402BEED9402353603F22EBE7036D5DF830
:10108000044B03EB41114FF40023C1F810397047B2
:101090002DE9F041314F3D6D05EB40130646D3F885
:1010A0000849C3F80849E10703D5D5F81038DA072D
:1010B0000AD4230606D50123D5F8342803FA06F608
:1010C000164229D1BDE8F08107EB8003D9684B694E
:1010D00058681A69904234D2121A4FF000085A60C8
:1010E000C3F8088031463846FFF7AAFF202383F370
:1010F00011883B6D03EB46100122D0F8001941F036
:101100000441C0F80019D3F83418B2400A43C3F8B8
:10111000342888F31188CCE7202383F31188D5F88D
:101120003438FA6D0E4823EA0603C5F834381643FE
:101130000021FE65FCF7ECFC002383F31188BDE879
:10114000F0813A89D1F808800123B34022EA0303F1
:101150003B8131463846C047ABE700BF101E002038
:10116000701E0020000000000000000000000000D1
:1011700070B53A4D2E6D7469B3691C40E104746119
:101180002DD4A20448BFD6F80838230704D56B68CD
:10119000DB680BB131489847E5062BD46003D6F8DD
:1011A000185807D5E90745D4AA0748D46B074BD48C
:1011B0002E074ED4240307D5E80330D4A90333D433
:1011C0006A0326D42B0303D4BDE87040FDF760B951
:1011D0000320FFF7DDFEBDE87040FDF759B9284652
:1011E000FDF73EFE6B681B68002BCAD00021284625
:1011F0009847C6E7202383F31188B369184823F082
:101200001003B3610021FCF783FC002383F31188F2
:10121000C4E70220FFF7BCFE2B03D5D5D8E700209A
:10122000FFF7B6FEA903CBD50120FFF7B1FE6A0395
:10123000C8D5EEE70020FFF72BFFAA07B6D501209F
:10124000FFF726FF6B07B3D50220FFF721FF2E071C
:10125000B0D50320FFF71CFFACE700BF101E002035
:10126000701E0020000000000000000000000000D0
:10127000036D03EB4111D1F8003B43F08063C1F8EB
:10128000003B70470000000000000000000000006C
:10129000036D10B403EB41140120D4F8002942F08F
:1012A0000442C4F80029D3F834285DF8044B00FA4E
:1012B00001F11143C3F83418704700BF000000006B
:1012C000036D03EB4111D1F8003B43F40013C1F867
:1012D000003B70470000000000000000000000001C
:1012E000036D03EB4111D1F8003943F40013C1F849
:1012F00000397047000000000000000000000000FE
:10130000036D03EB4111D1F8003B23F40013C1F846
:10131000003B7047000000000000000000000000DB
:10132000036D03EB4111D1F8003923F40013C1F828
:1013300000397047000000000000000000000000BD
:1013400010B50A4C0A4B4FF6FF7220461A80FDF783
:10135000D7FC084B08480949094AE06103F1240019
:1013600023626062A162E26210BD00BFB020002073
:10137000AC200020E00D04080030014016000106FA
:101380004600010600000000000000000000000010
:1013900038B5254DEB6869681C69DA68087D14402A
:1013A000E2B2D2431A6190B960072FD52B78042B93
:1013B00028D0A10712D4E40705D56B681A481B6929
:1013C000984703232B70BDE83840FDF761B8A207AA
:1013D0000BD52B78042B04D06307ECD504232B709A
:1013E000E9E78B68E3B1284698476307E3D52B7894
:1013F0000D4A042BF2D15168CB68002BEED00A487D
:101400009847EBE78B6843B128469847A107D2D5A8
:101410002B78054A042BE1D1EDE7A007ECD4CAE70D
:101420006207E9D4C7E700BFE02000200000000009
:1014300010B5034C2046FDF7ABF9024BE36010BD3D
:10144000E020002000080040000000000000000034
:10145000F8B50378012B04463AD0C36800221A601D
:101460005A639A635A626168A26888690D7D4E6802
:10147000B2FBF6F220F0FF00013A00274FF6FF76AC
:101480001F61D8609A62DE620A786DB940F201206D
:10149000542198619960C2B113221A6203F1380293
:1014A000343322616361F8BD4FF481706421986127
:1014B00099603AB131221A6203F134023833226161
:1014C0006361F8BD13221A62F6E731221A62E5E77A
:1014D0000B4B984201D0E368C5E70A4B1A6C42F007
:1014E00004021A641A6A002042F004021A620721F8
:1014F00018621E20FDF734FF034BA360EBE700BF2B
:10150000E02000200038024000BD0105000000007E
:1015100008B50378022B00D008BD0849C368002233
:1015200088421A60DA601A61F6D11E20FDF738FF92
:10153000034A136C23F004031364EDE7E02000205A
:101540000038024000000000000000000000000021
:10155000C3685A69002042F0010205215A611861EE
:10156000196070470000000000000000000000004B
:10157000C268D36810B413F0FF040CD14168146141
:10158000087D58B1886878B143F00603096909B14C
:1015900043F00103D3605DF8044B7047886800286E
:1015A000F2D143F00203F1E743F00403EEE700BF9A
:1015B000024AD36843F08003D3607047004800407C
:1015C000024AD36843F08003D3607047004C004068
:1015D000024AD36843F08003D3607047001401408F
:1015E0002DE9F041D0F85451D5F80C802B68DA057C
:1015F00006469CB251D4202383F3118814F02F0F98
:101600002BD0371D07E0A00669681DD42C68A4B252
:1016100014F02F0F21D02307F5D014F0080F0CBFC2
:1016200000218021E00748BF41F02001A20748BF08
:1016300041F04001630748BF41F480713846FCF730
:101640006FFCA0066968E1D5C9B23046FDF778F9AC
:101650002C68A4B214F02F0FDDD1002383F311887E
:1016600018F0800F01D0220626D4630613D520235C
:1016700083F31188B26C736C9A422BD04FF6BF7310
:1016800008EA03036FF04002EB6000232A6083F353
:101690001188BDE8F081BDE8F081202383F3118833
:1016A0004FF400710430FCF73BFC6FF480732B6047
:1016B000002383F311889EE7202383F3118806F12A
:1016C0003000FCF78DFD00280CDB6860002383F3FD
:1016D0001188CAE7B36B002BD0D0301D1021FCF766
:1016E0001FFCCBE70821301DFCF71AFC4FF63F73B7
:1016F00008EA030343F04003EB60E7E70000000063
:1017000008B50348FFF76CFFBDE80840FCF7C0BE12
:10171000F820002000000000000000000000000091
:1017200008B50348FFF75CFFBDE80840FCF7B0BE12
:101730005022002000000000000000000000000017
:1017400008B50348FFF74CFFBDE80840FCF7A0BE12
:10175000A82300200000000000000000000000009E
:1017600070B50E4E0E4D0F4A0F4C30460021FDF75E
:101770009FF80E4B0E4AC6F8543128460021FDF75B
:1017800097F80C4B0C4AC5F8543120460021FDF760
:101790008FF80A4BC4F8543170BD00BFF820002008
:1017A00050220020B1150108A82300200048004065
:1017B000C1150108004C0040D1150108001401407A
:1017C00038B52C4C037A002918BF0C46012B05466E
:1017D00023D0D5F85431284A934231D002F58062A3
:1017E00093422DD02168254AB2FBF1F29A60A2887B
:1017F000E088218942F4045240F0400042F02C027B
:1018000041F0010192B280B289B20024186159619D
:10181000DA601C601A685B6838BD194B984215D0B5
:10182000184B98421CD0184B9842D2D1174A536C8F
:1018300043F0200353640C214720FDF791FDC8E7D6
:101840002168134AB2FBF1F29A60D0E70F4A136C99
:1018500043F4802313640C212720FDF781FDB8E7B2
:101860000A4A136C43F4002313640C213420FDF75F
:1018700077FDAEE7A00E04080010014080DE800274
:10188000F820002050220020A82300200038024029
:1018900000BD010500000000000000000000000085
:1018A000037A022B00D070471349D0F8543100223C
:1018B0008842DA601A615A610DD0104B984212D0FA
:1018C0000F4B9842EFD10F4A536C23F0200353641F
:1018D0004720FDF765BD0B4A136C23F48023136486
:1018E0002720FDF75DBD074A136C23F40023136422
:1018F0003420FDF755BD00BFF82000205022002005
:10190000A823002000380240000000000000000072
