:02000004080EE4
:1000000000080020C1020E0801040E0801040E08B9
:1000100001040E0801040E0801040E0801040E0874
:1000200001040E0801040E0801040E0801040E0864
:1000300001040E0801040E08F1040E08B1040E08B4
:1000400001040E0801040E0801040E0801040E0844
:1000500001040E0801040E0801040E0801040E0834
:1000600001040E0801040E0801040E0801040E0824
:1000700001040E0801040E0801040E0801040E0814
:1000800001040E0801040E0801040E0801040E0804
:1000900001040E0801040E0801040E0801040E08F4
:1000A00001040E0801040E0801040E0801040E08E4
:1000B00001040E0801040E0801040E0801040E08D4
:1000C00001040E0801040E0801040E0801040E08C4
:1000D00001040E0801040E0801040E0801040E08B4
:1000E00001040E0801040E0801040E0801040E08A4
:1000F00001040E0801040E0801040E0801040E0894
:1001000001040E0801040E0801040E0801040E0883
:1001100001040E0801040E0801040E0801040E0873
:1001200001040E0801040E0801040E0801040E0863
:1001300001040E0801040E0801040E0801040E0853
:1001400001040E0801040E0801040E0801040E0843
:1001500001040E0801040E0801040E0801040E0833
:1001600001040E0801040E0801040E0801040E0823
:1001700001040E0801040E0801040E0801040E0813
:1001800001040E0801040E0801040E0801040E0803
:1001900001040E0801040E0801040E0801040E08F3
:0C01A00001040E0801040E0801040E0802
:1001B0002DE9F04F2F4B304A304E3149DFF8CC90CB
:1001C000916083B0184633600527002301A901938D
:1001D00000F0FEFB01A90546306800F0E9FB6B1E4C
:1001E0004B45044633D83068019B2946184400F03B
:1001F000C7FB84422BD100F013FCF220214CDFF826
:10020000908000F01DFC04F1180A05F1006B02213A
:1002100038F8020F00F054FC08281AD1A24503D088
:1002200054F8042B5A45F2D33468019BF2201C4445
:100230002544C4F1006A00F003FC0AEB040014F842
:10024000011B00F07DFC082803D1A542F5D100F088
:100250007FFB013F01D03068B7E70197019B0A4A55
:100260009342F4DC00BF019B01330193019B934255
:10027000F8DDECE70000080800ED00E04014002085
:1002800000000E08840C0E08FF2C3101FFFF050052
:10029000AE0C0E080000000000000000000000008E
:1002A000704700BF000000000000000000000000D8
:1002B000FEE700BF0000000000000000000000009A
:1002C00072B63D4880F309883C4A3D4913684FF0B7
:1002D000404443F4700313600C600023E1EE103AD5
:1002E00006228B6082F31488BFF36F8F354B364A3A
:1002F00093420BD2191D0332521A22F003020A4410
:100300004FF0553143F8041B9342FBD12F4B8342EE
:100310000BD22F4A191D521A22F003020A444FF041
:10032000553143F8041B9342FBD100F009FB294BE4
:10033000294A93420CD2181D0332121A22F00302EA
:100340002649024451F8040B43F8040B9342F9D1B7
:10035000234B244A93420AD2191D0332521A22F027
:1003600003020A44002143F8041B9342FBD1FFF728
:1003700097FF1D4C1D4B9C420AD2E5431D4425F0BE
:1003800003050435254454F8043B9847AC42FAD1A0
:10039000FFF70EFF164C174B9C420AD2E5431D4453
:1003A00025F003050435254454F8043B9847A5423D
:1003B000FAD1FFF77DFF00BF0010002088ED00E0BC
:1003C00034EF00E0000000200008002000080020BA
:1003D000031000200010002000100020D00E0E0896
:1003E0000010002044140020AC010E08AC010E08DF
:1003F000AC010E08AC010E08000000000000000077
:10040000FEE700BF00000000000000000000000048
:1004100072B6FEE7000000000000000000000000CF
:1004200000F0B6F800F024FA00F0CAF8024B4FF0E2
:1004300080525A6062B6FEE700ED00E00000000066
:10044000F1EE10FAEFF30983144A4FF08071D2688D
:1004500043F8082C43F84C1CA3F1680282F3098886
:100460000F498A6992F8230058B108689168826838
:100470008A4294BF0022012262B10A4A43F8502CFA
:1004800070470868916882688A4234BF002201225E
:10049000002AF2D1044A43F8502C704730EF00E0B4
:1004A0002414002021040E082C040E080000000073
:1004B00008B500F0DDF872B600F0A2F800F038F8E8
:1004C00000F0B6F862B600F0F3F872B6044B5B6861
:1004D0001B0501D462B608BDBDE80840FFF7B0BFF8
:1004E00000ED00E00000000000000000000000003F
:1004F000054A536823F001035360EFF3098368331F
:1005000083F30988704700BF30EF00E0000000006F
:100510002DE9F04F2DED108AC1F80CD0D0F80CD099
:10052000BDEC108ABDE8F08F000000000000000064
:10053000F8B500F0DDF8144B9B6993F8232012B155
:10054000013A83F823205A6A104D01325A62EB684F
:100550002C680133AC42EB6014D0A668013EA66063
:1005600086B92368E768E6605D602B6000F060F89C
:1005700062B62069B84772B600F042F82C68A368EA
:10058000002BEED0F8BD00BF24140020141400206E
:10059000074B1B6810B5074C0BB9236823B1064BFA
:1005A000064A1A60FFF734FF0123236010BD00BF25
:1005B000001000200410002008100020100C0E086D
:1005C000094B1B6810B5094C2BB92368002B02DDC1
:1005D0000023236010BD064B064A1A60FFF718FF80
:1005E0000023236010BD00BF001000200410002075
:1005F00008100020300C0E08000000000000000071
:10060000074B1B68002B10B5064C01DD236823B196
:10061000054B064A1A60FFF7FBFE0123236010BD5D
:10062000001000200410002008100020200C0E08EC
:10063000094B1B68002B10B5084C05DD2368002B07
:1006400002DD0023236010BD054B064A1A60FFF748
:10065000DFFE0023236010BD0010002004100020E6
:1006600008100020400C0E080000000000000000F0
:1006700010B572B6084C2368002B02DB074A1268DB
:100680002AB1074B074A1A60FFF7C2FE23680133FD
:10069000236062B610BD00BF0010002004100020CF
:1006A00008100020F00B0E08000000000000000001
:1006B00010B572B6084C2368002B02DD074A126899
:1006C0002AB1074B074A1A60FFF7A2FE2368013BD5
:1006D000236062B610BD00BF00100020041000208F
:1006E00008100020000C0E080000000000000000B0
:1006F000064B1B68002B04DB054B1B68002B00DD41
:100700007047044B044A1A60FFF782BE00100020B5
:100710000410002008100020E00B0E08000000006C
:1007200010B40C4A0C4C0D495368E4688969C3E95C
:100730000041816A996090F820101973103302F516
:1007400081618B4228BF02F1080353605DF8044BBE
:10075000704700BF0C100020141400202414002047
:10076000014B1860FFF754BE081000200000000085
:1007700010B50446FFF7BCFF94F8203093B10E2B60
:1007800010D00022A168094B84F820201B689A68C9
:100790008A42FBD25A68C4E900325C606368204632
:1007A0001C6010BD0248FFF7DBFFEAE724140020BD
:1007B000600C0E08000000000000000000000000B7
:1007C00038B5104C2368A5691A68226004210120FD
:1007D000546083F8200085F823102846A361FFF7B2
:1007E000C7FF2846FFF79CFFEA69ADF164039A4210
:1007F00002D90548FFF7B4FF2946A069BDE8384093
:10080000FFF786BE24140020500C0E0800000000E4
:1008100038B5154D2B68AC691A682A6001215560FE
:1008200083F820100022A16884F82020AB6100E04A
:100830001B689A688A42FBD85A68C4E900325C6037
:10084000636820461C60FFF76BFFE269ADF164034B
:100850009A4202D90548FFF783FF2146A869BDE8FF
:100860003840FFF755BE00BF24140020500C0E087E
:10087000044B9B6993F823300BB1FFF7C9BFFFF717
:100880009FBF00BF241400200000000000000000F3
:10089000244B254A4FF080504FF4404118641160BA
:1008A0001A6842F001021A601A689007FCD51A68AB
:1008B0001C4902F0F90200201A6098608B6813F05E
:1008C0000C0FFBD14B6F174A43F001034B67536F7B
:1008D0009907FCD5154B53601368134943F0807397
:1008E00013604B685A04FCD50E490B689B01FCD57C
:1008F0000F4B104A8A6040F205721A608B68094AF1
:1009000043F002038B60936803F00C03082BFAD1C9
:10091000536C43F480435364536E43F480435366F3
:10092000704700BF003802400070004010540007BC
:10093000003C024000940838000000000000000065
:10094000FFF7A6BF0000000000000000000000004C
:1009500008B501214FF4006000F052F8002000F0CB
:100960000FF9FF2000F01CF9642000F031F972B695
:10097000FEE700BF000000000000000000000000D3
:1009800091B110B4094C4218002110F8013B83EAE0
:100990001123904234F8133083EA012189B2F4D153
:1009A00008465DF8044B704708467047D00C0E08A7
:1009B0000B68C218C05C527802330B6042EA002018
:1009C000704700BF000000000000000000000000B1
:1009D00070B40A688418865CE3786578A07843EA86
:1009E000066343EA0543043243EA00200A6070BC10
:1009F000704700BF00000000000000000000000081
:100A0000044A136C19B923EA0000106470471843B4
:100A10001064704700380240000000000000000031
:100A2000044B1A69002A03DA0349044A59605A60E0
:100A3000704700BF003C024023016745AB89EFCD02
:100A4000014BD860704700BF003C0240000000002E
:100A50000B4BDA68D1030DD4DA68D2060CD4DA680D
:100A600012F0EF0F0AD1DB6813F0020F14BF07205A
:100A70000820704701207047052070470620704706
:100A8000003C0240000000000000000000000000E8
:100A900000B583B008238DF80730FFF7D9FF8DF834
:100AA00007009DF80730012BF7D09DF8070003B031
:100AB0005DF804FB000000000000000000000000E2
:100AC00070B5064661B101292FD002290CBF4FF441
:100AD00000744FF44074FFF7DBFF082805D070BDA9
:100AE0000C46FFF7D5FF0828F9D1114D2B6923F4E7
:100AF00040732B612969214329612B6923F0F80395
:100B00002B61286940F00200304328612B6943F4CF
:100B100080332B61FFF7BCFF2B6923F002032B61AD
:100B20002B6923F0F8032B6170BD4FF48074D8E774
:100B3000003C024000000000000000000000000037
:100B400070B505460E46FFF7A3FF082800D070BD1C
:100B5000094C236923F440732361236923612369CA
:100B600043F0010323612E70FFF792FF236923F006
:100B70000103236170BD00BF003C02400000000083
:100B8000034A536823F4C07318435060704700BF92
:100B9000002C0040000000000000000000000000E9
:100BA00082B0084A00230193536823F07F03019326
:100BB000019B00F07F0018430190019B536002B03D
:100BC000704700BF002C0040000000000000000043
:100BD000024B40F080001860704700BF002C0040BE
:100BE00053562331300000000000000000000000D8
:100BF00053562338000000000000000000000000F1
:100C000053562339000000000000000000000000DF
:100C100053562334000000000000000000000000D4
:100C200053562336000000000000000000000000C2
:100C300053562335000000000000000000000000B3
:100C400053562337000000000000000000000000A1
:100C5000737461636B206F766572666C6F770000EA
:100C6000636853636852656164794928292C20239D
:100C70003100000000000000000000000000000043
:100C800000000008004000080080000800C00008C4
:100C90000000010800000208000004080000060827
:100CA0000000080800000A0800000C0800000E08F8
:100CB0000000080010001800200028003000380054
:100CC00040004800500058000000000000000000F4
:100CD00000002110422063308440A550C660E770B8
:100CE000088129914AA16BB18CC1ADD1CEE1EFF160
:100CF0003112100273325222B5529442F772D66208
:100D0000399318837BB35AA3BDD39CC3FFF3DEE3AF
:100D10006224433420040114E664C774A444855457
:100D20006AA54BB528850995EEE5CFF5ACC58DD5FF
:100D30005336722611163006D776F6669556B446A7
:100D40005BB77AA719973887DFF7FEE79DD7BCC74F
:100D5000C448E5588668A7784008611802282338F7
:100D6000CCC9EDD98EE9AFF9488969990AA92BB99F
:100D7000F55AD44AB77A966A711A500A333A122A47
:100D8000FDDBDCCBBFFB9EEB799B588B3BBB1AABEF
:100D9000A66C877CE44CC55C222C033C600C411C97
:100DA000AEED8FFDECCDCDDD2AAD0BBD688D499D3F
:100DB000977EB66ED55EF44E133E322E511E700EE7
:100DC0009FFFBEEFDDDFFCCF1BBF3AAF599F788F8F
:100DD0008891A981CAB1EBA10CD12DC14EF16FE16F
:100DE0008010A100C230E3200450254046706760A7
:100DF000B9839893FBA3DAB33DC31CD37FE35EF3BF
:100E0000B1029012F322D2323542145277625672F6
:100E1000EAB5CBA5A89589856EF54FE52CD50DC50E
:100E2000E234C324A0148104667447642454054446
:100E3000DBA7FAB79987B8975FE77EF71DC73CD75E
:100E4000D326F2369106B016576676761546345696
:100E50004CD96DC90EF92FE9C899E9898AB9ABA9AE
:100E60004458654806782768C018E1088238A328E6
:100E70007DCB5CDB3FEB1EFBF98BD89BBBAB9ABBFE
:100E8000754A545A376A167AF10AD01AB32A923A36
:100E90002EFD0FED6CDD4DCDAABD8BADE89DC98D4E
:100EA000267C076C645C454CA23C832CE01CC10C86
:100EB0001FEF3EFF5DCF7CDF9BAFBABFD98FF89F9E
:100EC000176E367E554E745E932EB23ED10EF01ED6
:04000005080E02C11E
:00000001FF
