:020000040800F2
:100000000008002001C0000881D4000881D4000845
:1000100081D4000881D4000881D4000881D400086C
:1000200081D4000881D4000881D4000881D400085C
:1000300081D4000881D4000851E30008C1F700080A
:1000400081D40008C11C010881D4000881D40008B3
:1000500081D4000881D4000881D4000881D400082C
:1000600081D4000881D4000881D4000841F200083E
:1000700071F20008A1F20008D1F2000801F30008B3
:1000800031F3000861F30008211C010821F9000880
:1000900091F90008F1F9000851FA0008411C010823
:1000A000A111010881D4000881D4000881D400087E
:1000B000911C0108611C01088111010881D400080C
:1000C00081D40008810001087101010881D4000871
:1000D00081D40008E114010881D400080115010849
:1000E00081D4000881D4000881D4000881D400089C
:1000F00081D4000881D4000881D4000891F300085D
:1001000081D4000881D4000881D4000881D400087B
:10011000211501084115010881D4000881D4000887
:10012000C1F30008F1F3000821F4000851F40008BD
:1001300081F4000881D4000881D4000881D400082B
:1001400081D4000881D4000881D40008E10E0108A0
:10015000B1F40008E1F4000811F500086115010888
:1001600081D4000881D4000881D4000881D400081B
:1001700081D4000881D4000881D4000881D400080B
:1001800081D4000881D4000881D4000881D40008FB
:1001900081D4000881D4000881D4000881D40008EB
:1001A00081D4000881D4000881D4000881D40008DB
:1001B00081D4000881D4000881D4000881D40008CB
:10C0000072B6334880F3098840F20000CCF2000099
:10C010004EF63471CEF200010860BFF34F8FBFF3CC
:10C020006F8F40F20000C0F2F0004EF68851CEF261
:10C0300000010860BFF34F8FBFF36F8F4FF0000018
:10C04000E1EE100A4EF63C71CEF2000108600620C7
:10C0500080F31488BFF36F8F01F0FAF905F0C8FB85
:10C060004FF055301B491C4A91423CBF41F8040B2C
:10C07000FAE71A49164A91423CBF41F8040BFAE725
:10C080001749184A184B9A423EBF51F8040B42F820
:10C09000040BF8E700201549154A91423CBF41F8CE
:10C0A000040BFAE701F0DCF9124C134DAC4203DA51
:10C0B00054F8041B8847F9E705F0BAFC0F4C104D03
:10C0C000AC4203DA54F8041B8847F9E701F0D0B911
:10C0D00000100020000000200008002000080020C0
:10C0E000C8B0040800100020B01A0020B01A0020C8
:10C0F000AC93012000C0000800C0000800C0000888
:10C1000000C0000800000000000000000000000067
:10C110002DE9F04F2DED108AC1F80CD0D0F80CD0DD
:10C12000BDEC108ABDE8F08F62B62846A04700201B
:10C1300001F08EFC01F0BCFB4EF60453CEF200037E
:10C140004FF080521A6062B6FEE700000000000067
:10C1500081F0004102E000BF83F0004330B54FEAB8
:10C1600041044FEA430594EA050F08BF90EA020F25
:10C170001FBF54EA000C55EA020C7FEA645C7FEAB8
:10C18000655C00F0E2804FEA5454D4EB5555B8BFDB
:10C190006D420CDD2C4480EA020281EA030382EA4C
:10C1A000000083EA010180EA020281EA0303362DDE
:10C1B00088BF30BD11F0004F4FEA01314FF4801CB1
:10C1C0004CEA113102D0404261EB410113F0004FC3
:10C1D0004FEA03334CEA133302D0524263EB43037A
:10C1E00094EA050F00F0A780A4F10104D5F1200E18
:10C1F0000DDB02FA0EFC22FA05F2801841F1000173
:10C2000003FA0EF2801843FA05F359410EE0A5F146
:10C2100020050EF1200E012A03FA0EFC28BF4CF077
:10C22000020C43FA05F3C01851EBE37101F000452D
:10C2300007D54FF0000EDCF1000C7EEB00006EEB3A
:10C240000101B1F5801F1BD3B1F5001F0CD34908C4
:10C250005FEA30004FEA3C0C04F101044FEA44521B
:10C2600012F5800F80F09A80BCF1004F08BF5FEAA2
:10C27000500C50F1000041EB045141EA050130BD82
:10C280005FEA4C0C404141EB010111F4801FA4F125
:10C290000104E9D191F0000F04BF01460020B1FA7A
:10C2A00081F308BF2033A3F10B03B3F120020CDAB2
:10C2B0000C3208DD02F1140CC2F10C0201FA0CF090
:10C2C00021FA02F10CE002F11402D8BFC2F1200CF5
:10C2D00001FA02F120FA0CFCDCBF41EA0C019040AB
:10C2E000E41AA2BF01EB0451294330BD6FEA0404F4
:10C2F0001F3C1CDA0C340EDC04F11404C4F12002DF
:10C3000020FA04F001FA02F340EA030021FA04F3F0
:10C3100045EA030130BDC4F10C04C4F1200220FA47
:10C3200002F001FA04F340EA0300294630BD21FA85
:10C3300004F0294630BD94F0000F83F4801306BF4B
:10C3400081F480110134013D4EE77FEA645C18BF3F
:10C350007FEA655C29D094EA050F08BF90EA020FD6
:10C3600005D054EA000C04BF1946104630BD91EACE
:10C37000030F1EBF0021002030BD5FEA545C05D1D1
:10C380004000494128BF41F0004130BD14F5800410
:10C390003CBF01F5801130BD01F0004545F0FE4184
:10C3A00041F470014FF0000030BD7FEA645C1ABFB9
:10C3B000194610467FEA655C1CBF0B46024650EAF0
:10C3C000013406BF52EA033591EA030F41F400211C
:10C3D00030BD00BF90F0000F04BF0021704730B5A2
:10C3E0004FF4806404F132044FF000054FF0000177
:10C3F00050E700BF90F0000F04BF0021704730B538
:10C400004FF4806404F1320410F0004548BF40420C
:10C410004FF000013EE700BF42004FEAE2014FEA61
:10C4200031014FEA02701FBF12F07F4393F07F4F3C
:10C4300081F06051704792F0000F14BF93F07F4F6E
:10C44000704730B54FF4607401F0004521F00041B1
:10C4500020E700BF50EA010208BF704730B54FF037
:10C4600000050AE050EA010208BF704730B511F03C
:10C47000004502D5404261EB41014FF4806404F174
:10C4800032045FEA915C3FF4DCAE4FF003025FEAF6
:10C49000DC0C18BF03325FEADC0C18BF033202EB7E
:10C4A000DC02C2F1200300FA03FC20FA02F001FAD8
:10C4B00003FE40EA0E0021FA02F11444C1E600BF77
:10C4C00070B54FF0FF0C4CF4E06C1CEA11541DBF2A
:10C4D0001CEA135594EA0C0F95EA0C0F00F0DEF8F5
:10C4E0002C4481EA030621EA4C5123EA4C5350EADA
:10C4F000013518BF52EA033541F4801143F480132B
:10C5000038D0A0FB02CE4FF00005E1FB02E506F0BB
:10C510000042E0FB03E54FF00006E1FB03569CF010
:10C52000000F18BF4EF0010EA4F1FF04B6F5007F16
:10C5300064F5407404D25FEA4E0E6D4146EB060688
:10C5400042EAC62141EA55514FEAC52040EA5E5011
:10C550004FEACE2EB4F1FD0C88BFBCF5E06F1ED8BB
:10C56000BEF1004F08BF5FEA500E50F1000041EBF2
:10C57000045170BD06F0004646EA010140EA02009F
:10C5800081EA0301B4EB5C04C2BFD4EB0C0541EAC1
:10C59000045170BD41F480114FF0000E013C00F3D6
:10C5A000AB8014F1360FDEBF002001F0004170BDFA
:10C5B000C4F10004203C35DA0C341BDC04F1140413
:10C5C000C4F1200500FA05F320FA04F001FA05F29F
:10C5D00040EA020001F0004221F0004110EBD3706C
:10C5E00021FA04F642EB06015EEA430E08BF20EA98
:10C5F000D37070BDC4F10C04C4F1200500FA04F33B
:10C6000020FA05F001FA04F240EA020001F00041CC
:10C6100010EBD37041F100015EEA430E08BF20EA3F
:10C62000D37070BDC4F1200500FA05F24EEA020E87
:10C6300020FA04F301FA05F243EA020321FA04F0B6
:10C6400001F0004121FA04F220EA020000EBD3706D
:10C650005EEA430E08BF20EAD37070BD94F0000F6D
:10C660000FD101F00046400041EB010111F4801FA1
:10C6700008BF013CF7D041EA060195F0000F18BF52
:10C68000704703F00046520043EB030313F4801F8E
:10C6900008BF013DF7D043EA0603704794EA0C0F48
:10C6A0000CEA135518BF95EA0C0F0CD050EA41065E
:10C6B00018BF52EA4306D1D181EA030101F00041DB
:10C6C0004FF0000070BD50EA410606BF1046194603
:10C6D00052EA430619D094EA0C0F02D150EA01360F
:10C6E00013D195EA0C0F05D152EA03361CBF104650
:10C6F00019460AD181EA030101F0004141F0FE41EF
:10C7000041F470014FF0000070BD41F0FE4141F472
:10C71000780170BD70B54FF0FF0C4CF4E06C1CEA72
:10C7200011541DBF1CEA135594EA0C0F95EA0C0F27
:10C7300000F0A7F8A4EB050481EA030E52EA0335E2
:10C740004FEA013100F088804FEA03334FF0805503
:10C7500045EA131343EA12634FEA022245EA111530
:10C7600045EA10654FEA00260EF000419D4208BFE1
:10C77000964244F1FD0404F5407402D25B084FEA8E
:10C780003202B61A65EB03055B084FEA32024FF43A
:10C7900080104FF4002CB6EB020E75EB030E22BF97
:10C7A000B61A754640EA0C005B084FEA3202B6EB57
:10C7B000020E75EB030E22BFB61A754640EA5C0006
:10C7C0005B084FEA3202B6EB020E75EB030E22BF96
:10C7D000B61A754640EA9C005B084FEA3202B6EB97
:10C7E000020E75EB030E22BFB61A754640EADC0056
:10C7F00055EA060E18D04FEA051545EA16754FEAB8
:10C8000006164FEAC30343EA52734FEAC2025FEAD5
:10C810001C1CC0D111F4801F0BD141EA00014FF064
:10C8200000004FF0004CB6E711F4801F04BF014335
:10C830000020B4F1FD0C88BFBCF5E06F3FF6AFAE51
:10C84000B5EB030C04BFB6EB020C5FEA500C50F1E1
:10C85000000041EB045170BD0EF0004E4EEA113164
:10C8600014EB5C04C2BFD4EB0C0541EA045170BD6B
:10C8700041F480114FF0000E013C90E645EA060EAF
:10C880008DE60CEA135594EA0C0F08BF95EA0C0FDD
:10C890003FF43BAF94EA0C0F0AD150EA01347FF425
:10C8A00034AF95EA0C0F7FF425AF104619462CE7FC
:10C8B00095EA0C0F06D152EA03353FF4FDAE10465F
:10C8C000194622E750EA410618BF52EA43067FF4B0
:10C8D000C5AE50EA41047FF40DAF52EA43057FF440
:10C8E000EBAE12E7000000000000000000000000B6
:10C8F0004FF0FF3C06E000BF4FF0010C02E000BF2C
:10C900004FF0010C4DF804CD4FEA410C7FEA6C5C0E
:10C910004FEA430C18BF7FEA6C5C1BD001B050EAB1
:10C92000410C0CBF52EA430C91EA030F02BF90EA9C
:10C93000020F0020704710F1000F91EA030F58BF5B
:10C94000994208BF90422CBFD8176FEAE37040F0BD
:10C95000010070474FEA410C7FEA6C5C02D150EA5B
:10C96000013C07D14FEA430C7FEA6C5CD6D152EA16
:10C97000033CD3D05DF8040B704700BF84461046DB
:10C9800062468C461946634600E000BF01B5FFF7DA
:10C99000B7FF002848BF10F1000F01BD4DF808EDAA
:10C9A000FFF7F4FF0CBF012000205DF808FB00BF7B
:10C9B0004DF808EDFFF7EAFF34BF012000205DF8D5
:10C9C00008FB00BF4DF808EDFFF7E0FF94BF012022
:10C9D00000205DF808FB00BF4DF808EDFFF7CEFF23
:10C9E00094BF012000205DF808FB00BF4DF808ED62
:10C9F000FFF7C4FF34BF012000205DF808FB00BF33
:10CA00004FEA410C7FEA6C5C02D150EA013C0AD14A
:10CA10004FEA430C7FEA6C5C02D152EA033C02D13C
:10CA20004FF0000070474FF0010070470000000019
:10CA30004FEA410212F5001215D211D56FF4787346
:10CA4000B3EB625212D94FEAC12343F0004343EAE9
:10CA5000505311F0004F23FA02F018BF40427047C4
:10CA60004FF00000704750EA013005D111F000404E
:10CA700008BF6FF0004070474FF00000704700BFE4
:10CA80004FEA4102B2F1E04324BFB3F5001CDCF1F0
:10CA9000FE5C0DD901F0004C4FEAC0024CEA507028
:10CAA000B2F1004F40EB830008BF20F00100704757
:10CAB00011F0804F21D113F13872BCBF01F000405A
:10CAC000704741F480114FEA5252C2F11802C2F18C
:10CAD000200C10FA0CF320FA02F018BF40F001000D
:10CAE0004FEAC1234FEAD32303FA0CFC40EA0C00BF
:10CAF00023FA02F34FEA4303CCE77FEA625307D1FC
:10CB000050EA01331EBF4FF0FE4040F44000704732
:10CB100001F0004040F0FE4040F40000704700BFCC
:10CB2000844641EA000313F003036DD1403A41D338
:10CB300051F8043B40F8043B51F8043B40F8043BF7
:10CB400051F8043B40F8043B51F8043B40F8043BE7
:10CB500051F8043B40F8043B51F8043B40F8043BD7
:10CB600051F8043B40F8043B51F8043B40F8043BC7
:10CB700051F8043B40F8043B51F8043B40F8043BB7
:10CB800051F8043B40F8043B51F8043B40F8043BA7
:10CB900051F8043B40F8043B51F8043B40F8043B97
:10CBA00051F8043B40F8043B51F8043B40F8043B87
:10CBB000403ABDD2303211D351F8043B40F8043B27
:10CBC00051F8043B40F8043B51F8043B40F8043B67
:10CBD00051F8043B40F8043B103AEDD20C3205D337
:10CBE00051F8043B40F8043B043AF9D2043208D02F
:10CBF000D2071CBF11F8013B00F8013B01D30B88A1
:10CC000003806046704700BF082A13D38B078DD07E
:10CC100010F003038AD0C3F10403D21ADB071CBF50
:10CC200011F8013B00F8013B80D331F8023B20F8BA
:10CC3000023B7BE7043AD9D3013A11F8013B00F8F3
:10CC4000013BF9D20B7803704B7843708B7883707B
:10CC50006046704700000000000000000000000077
:10CC6000EC46A0E8F05F4FF000007047B0E8F05FDE
:10CC7000E546080008BF0120704700BF0000000023
:10CC8000A2EB0300704700BF02780B78012A28BF8F
:10CC90009A42F5D16DE9044540EA0104CDE9026705
:10CCA0006FF0000C4FEA447212B380EA010414F0F2
:10CCB000070F6AD100F0070420F0070004F0030515
:10CCC00021F007014FEAC505F0E8042314F0040F32
:10CCD000F1E804670CFA05F462EA040266EA040665
:10CCE0000AD063EA0403624667EA0407664603E083
:10CCF000F0E80423F1E8046782FA4CF582EA0604BE
:10CD0000A4FA8CF46CBB83FA4CF583EA0705A5FA08
:10CD10008CF595B950E9022351E9026782FA4CF586
:10CD200082EA0604A4FA8CF483FA4CF583EA070538
:10CD3000A5FA8CF52543DBD09CB92DBAB5FA85F45C
:10CD400024F0070427FA04F1DDE9026723FA04F36B
:10CD500003F0FF0001F0FF01FDE80445A0EB010036
:10CD6000704724BAB4FA84F424F0070426FA04F1D4
:10CD7000DDE9026722FA04F202F0FF0001F0FF0190
:10CD8000FDE80445A0EB0100704714F0030F3CD10F
:10CD900010F0030428D150F8082B51F8083B82FA10
:10CDA0004CF582EA0305A5FA8CF55DB950F8042C20
:10CDB00051F8043C82FA4CF582EA0305A5FA8CF599
:10CDC000002DE8D02DBAB5FA85F424F0070423FA33
:10CDD00004F122FA04F202F0FF0001F0FF01FDE885
:10CDE0000445A0EB010070474FEAC40420F00300A3
:10CDF00050F8082B21F0030151F8083B0CFA04F419
:10CE000062EA040263EA0403C9E710F003041AD0DB
:10CE1000A1EB040120F00300E40750F8042B06D036
:10CE20000FD28B785FFAA2F4E41A06D12BB1CB783B
:10CE30005FFAB2F4E41A00D11BB920465DF8104B3A
:10CE4000704701F1040150F8042BCC0721F00301D5
:10CE500051F8043B48D824D222F07F4482FA4CF5A2
:10CE600094EA1325A5FA8CF50AD165B951F8043B6B
:10CE700084EA0204B4EB036F0ED150F8042BEBE705
:10CE80004FEA132355E035F07F454DD10878FDE892
:10CE90000445C0F1000070474FEA126203F0FF033F
:10CEA00047E002EA1C4482FA4CF594EA1345A5FADD
:10CEB0008CF50AD165B951F8043B84EA0204B4EB5D
:10CEC000034F0CD150F8042BEBE74FEA134330E04B
:10CED00015EA1C4528D10B884FEA124229E04FEA97
:10CEE000124203EA1C4324E002F0FF0482FA4CF5EC
:10CEF00094EA1365A5FA8CF50AD165B951F8043B9B
:10CF000084EA0204B4EB032F09D150F8042BEBE7B9
:10CF10004FEA13630DE015F0FF0F05D10B684FEAE0
:10CF2000122223F07F4304E04FF00000FDE80445A7
:10CF3000704712BA1BBA82FA4CF482EA0304A4FACC
:10CF40008CF5B5FA85F402FA04F203FA04F34FEA19
:10CF50001260FDE80445A0EB13607047000000007C
:10CF600090F800F06DE9024520F007016FF0000C29
:10CF700010F0070491F820F040F049804FF00004D1
:10CF80006FF00700D1E9002391F840F000F10800AC
:10CF900082FA4CF2A4FA8CF283FA4CF3A2FA8CF3E4
:10CFA0004BBBD1E9022382FA4CF200F10800A4FA4B
:10CFB0008CF283FA4CF3A2FA8CF3E3B9D1E904239F
:10CFC00082FA4CF200F10800A4FA8CF283FA4CF3D6
:10CFD000A2FA8CF37BB9D1E9062301F1200182FA90
:10CFE0004CF200F10800A4FA8CF283FA4CF3A2FA96
:10CFF0008CF3002BC6D0002A04BF04301A4612BAA4
:10D00000B2FA82F2FDE8024500EBD2007047D1E9A6
:10D01000002304F00305C4F100004FEAC50514F035
:10D02000040F91F840F00CFA05F562EA05021CBF06
:10D0300063EA050362464FF00004A9E70000000020
:10D0400001F0FF01102A2BDB10F0070F08D010F8B9
:10D05000013B013A8B422DD010F0070F42B3F6D1BD
:10D06000F0B441EA012141EA014122F007047FF0D6
:10D0700000070023F0E80256083C85EA010586EA2D
:10D08000010685FA47F5A3FA87F586FA47F6A5FA69
:10D0900087F68EB9EED1F0BC01F0FF0102F0070275
:10D0A00032B110F8013B013A83EA010313B1F8D120
:10D0B0000020704701387047002D06BF3546033801
:10D0C000073815F0010F07D1013015F4807F02BF3A
:10D0D000013015F4C03F0130F0BC0138704700BF8B
:10D0E0004A0011D212F5001211D20DD56FF47873E7
:10D0F000B3EB62520ED44FEAC12343F0004343EA3C
:10D10000505323FA02F070474FF00000704750EA86
:10D11000013002D14FF0FF3070474FF000007047F0
:10D1200053B94AB9002908BF00281CBF4FF0FF318E
:10D130004FF0FF3000F084B9ADF1080C6DE904CE7A
:10D1400000F006F8DDF804E0DDE9022304B07047E2
:10D150002DE9F0478C460E460446089D002B50D121
:10D160008A4217466CD9B2FA82FEBEF1000F0BD08C
:10D17000CEF1200420FA04F401FA0EF644EA060C7B
:10D1800002FA0EF700FA0EF44FEA1749220CBCFB24
:10D19000F9F01FFA87F809FB10C642EA064600FBC1
:10D1A00008F3B34209D9F61900F1FF3280F0228169
:10D1B000B34240F21F8102383E44F61AA2B2B6FBD7
:10D1C000F9F309FB136642EA064403FB08F8A0459D
:10D1D00009D9E41903F1FF3280F00A81A04540F239
:10D1E0000781023B3C44C8EB040443EA00400021B1
:10D1F000002D62D024FA0EF400232C606B60BDE891
:10D20000F0878B4207D9002D55D0002185E84100D9
:10D210000846BDE8F087B3FA83F1002940F090801A
:10D22000B34202D3824200F2F880841A66EB03060E
:10D230000120B446002D40D085E81010BDE8F087ED
:10D2400012B90127B7FBF2F7B7FA87FEBEF1000F5C
:10D2500035D1F31B4FEA17481FFA87FC0121B3FBB6
:10D26000F8F0220C08FB103642EA06460CFB00F3ED
:10D27000B34207D9F61900F1FF3202D2B34200F2ED
:10D28000CE801046F61AA2B2B6FBF8F308FB13667E
:10D2900042EA06440CFB03FCA44507D9E41903F158
:10D2A000FF3202D2A44500F2B5801346CCEB040451
:10D2B00043EA00409CE729462846BDE8F087CEF1C6
:10D2C000200106FA0EF307FA0EF720FA01F94FEAE9
:10D2D0001748CE4049EA0309B6FBF8FA4FEA194469
:10D2E00008FB1A661FFA87FC44EA06430AFB0CF2A5
:10D2F0009A4200FA0EF40AD9DB190AF1FF3180F0E4
:10D3000087809A4240F28480AAF1020A3B449B1A29
:10D310001FFA89F9B3FBF8F108FB113349EA03431B
:10D3200001FB0CF69E4207D9DB1901F1FF326BD2EB
:10D330009E4269D902393B449B1B41EA0A418EE770
:10D34000C1F1200E22FA0EF48B40234320FA0EF78F
:10D3500006FA01F44FEA134C26FA0EF63C43B6FBEC
:10D36000FCF9270C0CFB19661FFA83F847EA0646FE
:10D3700009FB08F7B74202FA01F200FA01FA08D9EC
:10D38000F61809F1FF3041D2B7423FD9A9F102099D
:10D390001E44F61BA0B2B6FBFCF40CFB146640EA7C
:10D3A000064704FB08F8B84507D9FF1804F1FF3019
:10D3B00028D2B84526D9023C1F4444EA0940C8EBAC
:10D3C0000707A0FB02894F4544464E4614D329D097
:10D3D00065B3BAEB040367EB060707FA0EFECB4012
:10D3E000CF404EEA030385E888000021BDE8F087BE
:10D3F0001346F8E61046E0E6B8EB020469EB0306D4
:10D400000138E5E70446D8E7114695E78146C0E7CD
:10D410008A467CE7023B3C4448E708460AE7023874
:10D420003E442FE7C245E7D33E46D1E72946BDE853
:10D43000F08700BF000000000000000000000000B6
:10D44000704700BF00000000000000000000000066
:10D45000704700BF00000000000000000000000056
:10D46000704700BF00000000000000000000000046
:10D47000FEE700BF00000000000000000000000008
:10D48000FEE700BF000000000000000000000000F8
:10D49000FEE700BF000000000000000000000000E8
:10D4A0001D4B1E4A1E48F0B500249C60DF681D4ECF
:10D4B0001D4D4FF6FF0139400A43DA60F26842F031
:10D4C0008072F260026842F00102026083B083F869
:10D4D000224000F0EDF800F073F800F079FB00F066
:10D4E00067FE00F0A5FE2846402100F0F1F9A5F105
:10D4F000300301229861027762B69B690B499961FA
:10D5000005F1500000940A4B4FF4EC7100F038FA2A
:10D51000084B836103B0F0BD00ED00E00003FA05A5
:10D52000001000E0F0ED00E0E01A0020704D04086B
:10D5300091D40008604D04080000000000000000C5
:10D5400072B6014BD862FEE7B01A0020000000005E
:10D5500070B5114CA269D37F0BB1013BD377116A2F
:10D56000E3690E4E01311162A26AB34202F1010277
:10D57000A26210D09D68013D9D6065B91A68D968A6
:10D58000DD605660E26162B61869884772B6E36989
:10D590009A68002AF2D070BDB01A0020CC1A002080
:10D5A000034A516853685B1A8342FBD3704700BF3C
:10D5B000001000E00000000000000000000000007B
:10D5C000054B4FF0FF3003F11C02002158629962B5
:10D5D000DA611A62704700BFB01A00200000000034
:10D5E00070B40D4EF469A5680361A942C26004D904
:10D5F0002468491BA5688D42FAD3636843600460C0
:10D60000186060608160A3684FF0FF32591AA16012
:10D61000726270BC704700BFB01A002000000000AA
:10D6200003688268416830B49D68064C2A449A6059
:10D630000B60056800224FF0FF336960C2606362CF
:10D6400030BC7047B01A002000000000000000004D
:10D6500010B472B6037F072B0ED8DFE803F01D0D60
:10D660000D2108040D08426A93680133936090E825
:10D670000C001A60026853604FF0FF34002281688A
:10D68000094B446202771B689A688A42FBD25A6847
:10D69000426003601060586062B65DF8044B7047EA
:10D6A000436A00221A60E7E7B01A00200000000079
:10D6B000034B00221B605B601B615B619A607047DB
:10D6C000B01A002000000000000000000000000070
:10D6D00000228168084B10B4044602771B689A68E0
:10D6E0008A42FBD25A6862602360204614605C6004
:10D6F0005DF8044B704700BFB01A00200000000026
:10D70000084B99691A6810B408770420C877106824
:10D71000186001244360147710465DF8044B9A6149
:10D72000FEF7F6BCB01A0020000000000000000068
:10D7300030B54B1C87B012D00C4C0D4AA36905467E
:10D7400001A8FFF74DFF2846FFF7DAFF049B13B14E
:10D7500001A8FFF765FFA369586A07B030BD034C05
:10D76000FFF7CEFFA369586A07B030BDB01A00209A
:10D7700051D600080000000000000000000000007A
:10D78000144B70B404469D694162A868A168814247
:10D790004FF000020BD822771B689A689142FBD9A0
:10D7A0005A686260236014605C6070BC70472A77BE
:10D7B0001A46126891688842FBD950686860012651
:10D7C0002A60056055602677294620469C6170BC1A
:10D7D000FEF79EBCB01A0020000000000000000010
:10D7E000084B9A691B68D17F9B68906821B9834276
:10D7F00034BF002001207047834294BF00200120E5
:10D80000704700BFB01A00200000000000000000B8
:10D810000E4A1068036870B4012194695A600426A6
:10D8200001770025A16813609061E677257700E015
:10D830001B689A688A42FBD25A686260236021465C
:10D8400014605C6070BCFEF763BC00BFB01A0020BF
:10D850000D4A1068036830B4012194695A600025AC
:10D860000177A16813609061257700E01B689A68D2
:10D870008A42FBD85A6862602360214614605C606B
:10D8800030BCFEF745BC00BFB01A0020000000000D
:10D89000044B1A689B6992689B689A4200D870474B
:10D8A000FFF7D6BFB01A0020000000000000000003
:10D8B000034B9B69DB7F0BB1FFF7CABFFFF7A8BF24
:10D8C000B01A00200000000000000000000000006E
:10D8D000F0B50F4C016466698160022700220125C2
:10D8E000077700F12C014FF0040E00F12807466184
:10D8F000046180F81FE04277C26382630262826142
:10D9000085773061606185648762C1620163F0BDC3
:10D91000B01A00200000000000000000000000001D
:10D92000F0B564390144134E059D7769C1600B64FD
:10D93000114B4D640B664FF0020C002382600264B1
:10D94000012100F12C024FF0040E00F128050661C0
:10D95000476180F81CC080F81FE04377C36383638E
:10D960000362836181773861856270618164C2621C
:10D970000263F0BDB01A002029C1000800000000B9
:10D98000F8B51F46044672B664390144144D154B70
:10D990006E69C1600F640B66069F4F64042300210B
:10D9A00082600264C377012200F12C034FF0020E63
:10D9B00000F128070561466180F81CE04177C163EA
:10D9C0008163016281618277306187628264C362B0
:10D9D00003636861FFF7D4FE62B62046F8BD00BF5E
:10D9E000B01A002029C1000800000000000000005B
:10D9F00072B6437F43F00403437762B6704700BFBB
:10DA000008B5014672B60820FFF792FE62B608BD5F
:10DA100038B50E4B9C69A36A606204F128059D42EB
:10DA200007D01A68A2621846FFF752FEA36AAB42FB
:10DA3000F7D1637F9B0704D1636922691A61226968
:10DA400053610F20BDE83840FFF75ABEB01A0020DE
:10DA500072B6FFF7DDBF00BF00000000000000004D
:10DA600038B5044672B6037F0F2B07D0074B826A86
:10DA70009B6909201A60A362FFF742FE656A62B6DD
:10DA8000204600F0C5F8284638BD00BFB01A002077
:10DA900010B5054CA369036002465A620320FFF7E4
:10DAA0002FFEA369586A10BDB01A002000000000C4
:10DAB000054B02469B6921B1036003205A62FFF7C0
:10DAC00037BE4FF0FF307047B01A00200000000052
:10DAD00003682BB10022026018465962FFF7F8BDB7
:10DAE000704700BF000000000000000000000000C0
:10DAF00069B1084B10B4024644689B69042083E86E
:10DB00001400236053605DF8044BFFF711BE4FF023
:10DB1000FF307047B01A0020000000000000000035
:10DB2000026890420AD010B414680460034663602F
:10DB3000516210465DF8044BFFF7CABD704700BF45
:10DB400038B5036898420BD004460D461A68226027
:10DB5000184654605D62FFF7BBFD23689C42F5D117
:10DB600038BD00BF00000000000000000000000001
:10DB7000014B5B6883607047001000E0000000000C
:10DB80000E4B0F495A688368F0B4CF6F4168C6687E
:10DB9000D0E90445D31ADB1BE4180268836045F121
:10DBA00000058B4206F1010688BF43609342C660C0
:10DBB000C0E9044538BF0360F0BC7047001000E0C6
:10DBC000B01A00200000000000000000000000006B
:10DBD000D0B50C4C86B000234FF0FF3268460026CB
:10DBE0000027E3670193029303930092CDE9046752
:10DBF000FFF7BEFF6846FFF7C3FF029BE36706B06F
:10DC0000D0BD00BFB01A00200000000000000000DE
:10DC1000014672B6837F013BDBB2837762B613B9EC
:10DC2000037F0F2B00D07047437F03F00303012BCA
:10DC300002D0022B07D07047436902691A6102695A
:10DC4000536100F005BB436902691A610269406CC7
:10DC5000536100F075BB00BF000000000000000031
:10DC600072B6034B1869837F0133837762B67047BE
:10DC7000B01A0020000000000000000000000000BA
:10DC800010B572B6064B04699C421DBFA37F0133D9
:10DC9000A377002462B6FFF7BBFF204610BD00BF8C
:10DCA000B01A00200000000000000000000000008A
:10DCB0000023006040608360704700BF00000000E8
:10DCC000304B826870B59C69002A55D0A168936872
:10DCD0008B42054606D2137F9160062B33D0072B6B
:10DCE0001DD09BB12B4603E09968A268914202D3F4
:10DCF0001B689D42F8D15A686260236014605C60C2
:10DD000065620620BDE87040FFF7FABC92E80A00A1
:10DD10001960116810464B60FFF7DAFCE2E792E801
:10DD20000900186010684360566A334602E098683C
:10DD3000884202D31B689E42F9D159685160136032
:10DD40000A605A60CEE792E80900186010684360E4
:10DD5000566A334602E09868884202D31B689E42A6
:10DD6000F9D15968516013600A605A60B268A168BD
:10DD700093688B42AFD3B5E7E36BC3608460E06325
:10DD800070BD00BFB01A00200000000000000000BD
:10DD900008B572B6FFF794FF62B608BD0000000038
:10DDA000144B70B59D6972B60468C368EB63844216
:10DDB0001BD0296C4BB11A68934203D092689142F0
:10DDC00038BF1146DB68002BF5D103462268E66BAD
:10DDD000A96020461A6053609C60DE60E363FFF731
:10DDE00077FCFFF755FD62B670BD0023A36062B6F5
:10DDF00070BD00BFB01A002000000000000000004D
:10DE000030B472B6064D0468AD690C600024016040
:10DE10004D608A600B61CC6062B630BC704700BF59
:10DE2000B01A002000000000000000000000000008
:10DE300072B6024602E08B4205D01A461368984239
:10DE4000F9D162B670470B68136062B6704700BFC5
:10DE500072B6044B9A69936B23EA0001916362B630
:10DE600018407047B01A00200000000000000000B9
:10DE7000836B027F19430A2A816309D00B2A00D0E1
:10DE80007047436A8B43FBD100234362FFF720BCFA
:10DE9000436A1942F8D170470000000000000000FA
:10DEA00070B50468A0420FD006460D46E3682B43C8
:10DEB000E36015B12269134203D0A1686068FFF7DF
:10DEC000D7FF2468A642F1D170BD00BF000000005A
:10DED00008B572B6FFF7CCFFFFF7DAFC62B608BDF3
:10DEE00038B50A4B9D6972B6AB6B13EA000406D1D4
:10DEF000044668620A20FFF703FCAB6B1C4023EA70
:10DF00000403AB6362B6204638BD00BFB01A0020E0
:10DF10000D4B70B59E6972B6B36B13EA00040DD158
:10DF200011B962B6084670BD706205460A20FFF757
:10DF3000FFFB002805DBB36B05EA030423EA0403B7
:10DF4000B36362B6204670BDB01A00200000000026
:10DF500030B4029C046200250A44856002610060BE
:10DF60004060C16081614161C36130BC704700BFE6
:10DF70000021C2688160826142616FF00101FFF798
:10DF8000DFBD00BF00000000000000000000000036
:10DF900043698269934210B510D082685C1C0132DB
:10DFA000826044611970426903699A4201D3C3686F
:10DFB00043610021FFF7B4FD002010BD8268002AF4
:10DFC000EBD06FF0030010BD000000000000000067
:10DFD00038B50D46044672B6C3692BB1984703E0C5
:10DFE000FFF786FD002811DBA36829462046002B99
:10DFF000F6D0A169A36825694A1C013BAA42A36027
:10E00000A26128BFE368087828BFA36162B638BD63
:10E010002DE9F8430446884691461D46C76972B605
:10E0200000262FB12046B84702E0FFF761FDC8B9CE
:10E03000A36829462046002BF7D0A269A368511C8B
:10E04000013BA161A360137808F8013B2369A26931
:10E050009A4224BFE368A36162B60136B14502D09B
:10E0600072B6DEE762B63046BDE8F8830000000015
:10E0700030B4029C04628D180561006040608260CB
:10E08000C16081614161C36130BC70470000000024
:10E0900010B40269C4688461121B44616FF001010D
:10E0A00082605DF8044BFFF74BBD00BF000000002D
:10E0B00070B504460E46154672B603E0FFF718FD2C
:10E0C000002818DBA36829462046002BF6D0626999
:10E0D000A368511C013B6161A360167023696269EA
:10E0E0009A4224BFE3686361E3690BB12046984715
:10E0F00062B6002070BD62B670BD00BF00000000B7
:10E1000038B5426983699A420FD082680569591C03
:10E11000013282608161A9421C7801D3C3688361A6
:10E120000021FFF7FDFC204638BD8268002AECD0B4
:10E130006FF0020038BD00BF0000000000000000CA
:10E140002DE9F04704460D4616469946D0F81C8046
:10E1500072B60027A36805F1010A2046F3B162698F
:10E16000A368511C013B6161A3602B781370236984
:10E1700062699A4224BFE3686361B8F1000F00D07E
:10E18000C04762B6013E07F101070ED072B6A36820
:10E19000554605F1010A2046002BE0D149462046AC
:10E1A000FFF7A6FC0028D5D062B63846BDE8F08758
:10E1B000054A064B0648074922F0070223F00703E9
:10E1C00002600B60704700BFB39301200000022083
:10E1D0000C1D0020081D00200000000000000000B1
:10E1E00010B472B6084C094B22681968C31D23F09D
:10E1F0000703891A8B429DBF9B182360104600209D
:10E2000062B65DF8044B70470C1D0020081D00200D
:10E21000024A034B10681B68C01A7047081D002093
:10E220000C1D0020000000000000000000000000A5
:10E23000044B054A1A6003F1100000229A60DA606C
:10E24000FFF736BD101D0020E1E1000800000000CE
:10E25000F8B550F8085C05F110070646A0F108046F
:10E2600008353846FFF794FD2B46AB4204D0A34255
:10E2700002D31B68AB42FAD11A681AB1944201D397
:10E280001346F2E746F8082C1C6056F8041C56F8B2
:10E29000085C01F10802A018A8420AD0596801F1EF
:10E2A00008021A44944212D03846BDE8F840FFF7FD
:10E2B00077BD40680144083146F8041CA25846F86E
:10E2C000082C596801F108021A449442ECD156F81E
:10E2D000042C0A4408325A6056F8082C1A60384652
:10E2E000BDE8F840FFF75CBD000000000000000042
:10E2F00070B50F4C002818BF044604F110052846DD
:10E300000E46FFF745FDA36873B100221446586816
:10E310001B6801340244002BF9D106B13260284653
:10E32000FFF73EFD204670BD1A461C46F5E700BFCC
:10E33000101D002000000000000000000000000090
:10E3400072B603680B60016062B67047000000009F
:10E35000054A536823F001035360EFF309836833E0
:10E3600083F30988704700BF30EF00E00000000031
:10E3700072B6114B5B681B0501D462B6704710B5CD
:10E38000F1EE103AEFF309840C4B4FF08072DB682A
:10E3900044F8083C44F84C2CA4F1680383F3098842
:10E3A000FFF71EFA18B1064B44F8503C10BD054B60
:10E3B00044F8503C10BD00BF00ED00E030EF00E03D
:10E3C00035C1000838C1000800000000000000004E
:10E3D00008B501F055F90B4801F0CAFC00F020F82F
:10E3E00000F0BEF800F02CF900F0B2F900F0C0FB2C
:10E3F00000F0CEFB00F0C4FA03F002FABDE80840DA
:10E4000000F006B8304F04080000000000000000D3
:10E4100001F0E6B90000000000000000000000006C
:10E4200001F04EBB000000000000000000000000F2
:10E43000F0B40122002300F1180700F11C0600F1DE
:10E44000200500F1240400F128010270436000F16E
:10E45000080200F110038761C661056244628162AF
:10E460008260C26003614361F0BC7047000000003D
:10E4700010B5044672B602230370416001F038FB08
:10E480000323237062B610BD0000000000000000EE
:10E4900010B5044672B601F063FB2046012300F874
:10E4A000103B6FF00101FFF74BFB04F108006FF028
:10E4B0000101FFF745FBFFF7EBF962B610BD00BFA6
:10E4C0002DE9F04104460D4690461F4672B600F114
:10E4D00008062378042B2946204602D001F068FB69
:10E4E00040B939463046FFF703FB0028F1D062B649
:10E4F000BDE8F08142462946204601F079FB62B62C
:10E500000020BDE8F08100BF000000000000000016
:10E510002DE9F04104460D4690461F4672B600F1C3
:10E5200010062378042B2946204602D001F0A0FBD8
:10E5300040B939463046FFF7DBFA0028F1D062B621
:10E54000BDE8F08142462946204601F0B1FB62B6A3
:10E550000020BDE8F08100BF0000000000000000C6
:10E5600001F06EBE0000000000000000000000008E
:10E5700001220023027043600C30FFF799BB00BFFB
:10E5800010B5044672B6416001F072FE022323709A
:10E5900062B610BD00000000000000000000000096
:10E5A00010B5044672B601F01BFF0123237062B65A
:10E5B00010BD00BF000000000000000000000000CF
:10E5C000F0B585B004460B9F0C9D72B600260295EF
:10E5D000019703250A9F00978660057001F080FF70
:10E5E000431C0CBF05230223237062B605B0F0BDA7
:10E5F000F0B583B00446089F72B600260425009744
:10E600008660057001F034FF431C0CBF0523022314
:10E61000237062B603B0F0BD0000000000000000EF
:10E620000C30FFF7B5BB00BF000000000000000089
:10E630000C30FFF7B5BB00BF000000000000000079
:10E6400002F0BEBD0000000000000000000000005D
:10E650000122002302704360704700BF00000000E9
:10E6600010B5044672B6416002F0C2FD0223237069
:10E6700062B610BD000000000000000000000000B5
:10E6800010B5044672B602F02BFE0123237062B669
:10E6900010BD00BF000000000000000000000000EE
:10E6A00010B5044672B602F043FE0323237062B62F
:10E6B00010BD00BF000000000000000000000000CE
:10E6C00008B572B602F044FE62B608BD0000000054
:10E6D0000C30FFF79DBC00BF0000000000000000F0
:10E6E0000C304FF0FF33FFF793BC00BF0000000079
:10E6F0003030FFF725BD00BF000000000000000023
:10E7000030304FF0FF33FFF71BBD00BF00000000AB
:10E710000C30FFF75DBC00BF0000000000000000EF
:10E720000C304FF0FF31FFF753BC00BF000000007A
:10E730003030FFF7BDBC00BF00000000000000004B
:10E7400030304FF0FF32FFF7B3BC00BF00000000D5
:10E7500002F016BF000000000000000000000000F2
:10E7600070B50E4B044682B040F8043B012600947D
:10E7700015460B46606004F1540104F10C0026724A
:10E780008022FFF7E5FB00942B4604F1D40104F14D
:10E7900030008022FFF76CFC02B070BD904D040881
:10E7A00010B5044672B602F03BFF0223237262B634
:10E7B00010BD00BF000000000000000000000000CD
:10E7C00010B5044672B602F0B3FF0123237204F1C0
:10E7D0003000FFF75DFC04F10C00FFF7C9FBFFF709
:10E7E00057F862B610BD00BF000000000000000036
:10E7F00038B5436904460D463BB1294604F10C0087
:10E80000FFF7C6FB00280BDB38BD04210844FFF7E7
:10E8100047FB294604F10C00FFF7BAFB0028F3DAA6
:10E82000201D8021BDE83840FFF73ABB0000000002
:10E8300010B5046AD4F8542813681978042900D054
:10E8400010BD217A0229FBD111791A8901238B404D
:10E850001342F5D1226CE36BA16BD31A5B1AEFD094
:10E8600062B6D4F854281179106804F1300200F02F
:10E87000EFF972B6D4F85438BDE810401979186829
:10E8800000F00EBA000000000000000000000000D0
:10E8900010B5046AD4F8542813681978042900D0F4
:10E8A00010BD217A0229FBD15179588901228A4071
:10E8B0000242F5D103EB8103A269E169DB6860697B
:10E8C0005B8A891A0A1A9342EAD862B6B2FBF3F25B
:10E8D000D4F8540803FB02F34179006804F10C02F8
:10E8E00000F0A6F972B6D4F85438BDE81040597952
:10E8F000186800F0BDB900BF000000000000000073
:10E900000C30FFF785BB00BF0000000000000000D6
:10E910000C304FF0FF33FFF77BBB00BF000000005F
:10E920003030FFF70DBC00BF000000000000000009
:10E9300030304FF0FF33FFF703BC00BF0000000092
:10E940000C30FFF745BB00BF0000000000000000D6
:10E950000C304FF0FF31FFF73BBB00BF0000000061
:10E960003030FFF7A5BB00BF000000000000000032
:10E9700030304FF0FF32FFF79BBB00BF00000000BC
:10E98000704700BF00000000000000000000000011
:10E9900010B503460E4A43F8042B82B00122044608
:10E9A000009000F15401436002720A4B0C304FF4A6
:10E9B0008062FFF7CDFA009404F2544104F1300074
:10E9C000054B4FF48062FFF753FB02B010BD00BF50
:10E9D000B04D040891E8000831E80008000000008C
:10E9E0000B6872B60A7903EB820290614A790932A8
:10E9F00043F822008A7912B103EB82039861022363
:10EA0000C0F85418037262B6704700BF00000000DF
:10EA100070B5D0F8543800F10C06044630461D6835
:10EA2000FFF7A6FA04F13000FFF732FB201D0121A9
:10EA3000FFF736FAD4F85438597905EB81032846A4
:10EA4000DB6832465B8A00F0F3F8D4F85438284685
:10EA50005979BDE8704000F00BB900BF000000001C
:10EA600090F8443003F06003202B01D00020704761
:10EA700090F84530212B03D0222B09D0202BF5D143
:10EA8000064B836307220023C2630364012070479F
:10EA900000238363C36303640120704700100020D8
:10EAA00000EB810370B59C699CB10E46054672B6B9
:10EAB0000821201DFFF7F4F9226CE36BA16BD31A38
:10EAC0005B1A0BD105EB8603DB685A6952680AB9F9
:10EAD00062B670BD1B8A013B1340F9D162B604F1E6
:10EAE00030023146284600F0B3F872B63146284667
:10EAF00000F0D6F8ECE700BF0000000000000000C6
:10EB000001F109032DE9F04150F8236096B18046E8
:10EB10000F4672B604217018FFF7C2F908EB87039D
:10EB2000B469DA68F5697369518A2D1BEC1AA14240
:10EB300002D962B6BDE8F08162B6B4FBF1F306F12A
:10EB40000C0201FB03F34046394600F071F872B63F
:10EB50003946404600F08CF8EBE700BF00000000AB
:10EB6000704700BF0000000000000000000000002F
:10EB700002F096BA00000000000000000000000053
:10EB8000002301220270436083600C30FFF790B8CD
:10EB900001F06EBE00000000000000000000000058
:10EBA0000023012202704360C36183620362C36277
:10EBB0004362036303814381704700BF000000008C
:10EBC00010B5044672B60023C360036143618361DC
:10EBD000416001F065FE0223237062B610BD00BFE4
:10EBE00010B5044672B601F0EBFE0123237062B645
:10EBF00010BD00BF00000000000000000000000089
:10EC0000536910B42BB100241C605C609C60DC6014
:10EC10001C6193692BB100241C605C609C60DC600B
:10EC20001C6100EB81035DF8044BDA6001F070BFFA
:10EC300070B400EB81040126E468A4690025E26059
:10EC400063602670A56070BC02F04AB80000000046
:10EC500070B400EB81040126E46864690025E26079
:10EC600063602670A56070BC02F0B2B800000000BE
:10EC7000012270B502FA01F344899BB214EA03063B
:10EC800001D0104670BD2343438102F0A1F9304604
:10EC900070BD00BF00000000000000000000000088
:10ECA000012270B502FA01F304899BB214EA03064B
:10ECB00001D0104670BD2343038102F099F930461C
:10ECC00070BD00BF00000000000000000000000058
:10ECD00070B50223002504460370A0F84C5080F85C
:10ECE0004E5080F84F5005814581C56005614561F2
:10ECF000856180F8345001F09BFE63681B6823B186
:10ED000029462046BDE87040184770BD000000004D
:10ED1000F8B50023044680F8343000F1440201F0D5
:10ED2000CFFF63689B68002B31D02046984770B3B3
:10ED3000E06B94F8443094F84B1094F84A2042EA7F
:10ED4000012282423CBFE26310461A0600F1A58010
:10ED5000002800F08780E368A56B9B6900220421EE
:10ED600084F834101146DD6058601A709A602046AD
:10ED700001F0B6FF72B6638913F0010105D143F0CB
:10ED800001036381204602F023F962B6F8BD94F8CE
:10ED9000443013F060071E4611D00021204602F0D7
:10EDA0004FF90021204602F03BF963681B6813B15C
:10EDB000052120469847062384F83430F8BD94F89E
:10EDC000450003F07F0242EA0025B5F5407F00F0E0
:10EDD000E98016D9B5F5C06F00F0CC802FD9B5F514
:10EDE000106F74D040F60242954200F0ED80B5F508
:10EDF000006FD2D104F14F0201202764A263E063C7
:10EE000099E7022D00F0A08040F29580B5F5807F53
:10EE100000F08280B5F5817FBFD194F84630002B99
:10EE2000BBD194F8483013F00F0115D01E062046D0
:10EE300000F1F28002F014F994F844600CE040F222
:10EE400002339D4255D0B5F5A06FA6D1B4F8443039
:10EE5000B3F5A06F00F0CE800023A363E3632364C7
:10EE6000330628D4E3685A690521002384F8341056
:10EE700019461370D36053609360204601F0A8FFD9
:10EE800072B6238913F001017FF47FAF43F00103D1
:10EE90002381204602F0ACF877E760B1E368A56B08
:10EEA0005B690022012184F834101146DD6058604E
:10EEB0001A709A60E1E7E3689A690321002384F8F5
:10EEC000341019461370D360536093604FE794F881
:10EED000463084F84F30002B7DD1032323706368C4
:10EEE0001B68002BB8D002212046984794F8446054
:10EEF000B2E794F84630002B7FF44FAF94F84830D7
:10EF000013F00F01A8D01D06204600F18A8002F000
:10EF100087F894F844609FE794F84630012B7FF41B
:10EF20003CAFB4F84C30A76323F00203E7632764D7
:10EF3000A4F84C3094E7002D43D104F14C02022098
:10EF40002564A263E063F6E694F8481011F0800FA0
:10EF5000204601F00F0141D101F092FE012841D07D
:10EF600002287FF41AAF314BA363E063276494F85F
:10EF70004430E0E694F84900616894F848304D6800
:10EF800094F8462094F8471043EA00232046A84707
:10EF900000283FF402AF09C82764A363E06394F834
:10EFA0004430C8E694F84630012B7FF4F6AEB4F84E
:10EFB0004C30A76343F00203E7632764A4F84C30A6
:10EFC0004EE7012D7FF4E9AE194AA2630220002228
:10EFD000E0632264AFE60423237080E701F060FE63
:10EFE0000128BDD1134BA363E5632764284694F839
:10EFF0004430A0E694F8463084F84E30204601F0C4
:10F0000077FD63681B6813B10121204698470323ED
:10F0100094F8446023701FE702F032F894F84460DB
:10F020001AE702F00DF894F8446015E7E04D040883
:10F03000D04D0408F04D040800000000000000005E
:10F0400090F8343010B50446062B15D8DFE803F0ED
:10F0500004371C0404150400002101F0F1FF002115
:10F06000204601F0DDFF63681B6813B105212046CF
:10F070009847062384F8343010BD036C03B19847D9
:10F08000002384F8343010BDC3689A69032100233B
:10F0900084F83410204619461370D360536093608F
:10F0A00001F01EFE72B6638913F0010105D143F031
:10F0B00001036381204601F08BFF62B610BD90F81A
:10F0C0004B1090F84A30C26B43EA01239342C36865
:10F0D000DBD9188AB2FBF0F100FB1122002AD4D14F
:10F0E0005B6911461A70DA605A609A60204601F036
:10F0F0006FFE72B6238913F0010105D143F00103BD
:10F100002381204601F074FF62B6022384F8343074
:10F1100010BD00BF00000000000000000000000063
:10F1200090F83420062A0CD80123934013F0670F7F
:10F1300010B5044612D113F0080203D1DB061ED429
:10F1400010BD7047C3689B699B68002BF8D1036CA6
:10F1500003B19847002384F8343010BD002101F03A
:10F160006FFF0021204601F05BFF63681B6813B14D
:10F17000052120469847062384F8343010BDC36823
:10F180005B69052180F8341011461A70DA605A6004
:10F190009A6001F01DFE72B6238913F0010101D0BF
:10F1A00062B610BD43F001032381204601F020FF29
:10F1B000F6E700BF000000000000000000000000B3
:10F1C00043099B0010B403F1604300F1604404F56F
:10F1D000614403F56143090100F01F00012202FAB6
:10F1E00000F0C9B284F80013C3F8800118605DF81C
:10F1F000044B704700000000000000000000000009
:10F200000849430910B4203300F01F0401220844C8
:10F21000A240002441F8232080F800435DF8044B0D
:10F22000704700BF00E100E00000000000000000A7
:10F2300000F1604000F56D400901C9B201767047E8
:10F2400008B5074B074A196801F03D01996013683A
:10F250000BB150689847BDE80840FFF789B800BF78
:10F2600000600240301D002000000000000000008F
:10F27000084B094819688268890901F03D0110B5F9
:10F280008C019C600AB1C0689047BDE81040FFF750
:10F290006FB800BF00600240301D00200000000079
:10F2A000084B094819680269090C01F03D0110B5C5
:10F2B0000C049C600AB140699047BDE81040FFF71C
:10F2C00057B800BF00600240301D00200000000061
:10F2D000084B094819688269890D01F03D0110B594
:10F2E0008C059C600AB1C0699047BDE81040FFF7EB
:10F2F0003FB800BF00600240301D00200000000049
:10F3000008B5074B07485968026A01F03D01D9600A
:10F310000AB1406A9047BDE80840FFF729B800BF2E
:10F3200000600240301D00200000000000000000CE
:10F33000084B09485968826A890901F03D0110B5F6
:10F340008C01DC600AB1C06A9047BDE81040FFF74D
:10F350000FB800BF00600240301D00200000000018
:10F36000084B09485968026B090C01F03D0110B5C2
:10F370000C04DC600AB1406B9047BDE81040FEF71A
:10F38000F7BF00BF00600240301D002000000000F9
:10F39000084B09485968826B890D01F03D0110B591
:10F3A0008C05DC600AB1C06B9047BDE81040FEF7E9
:10F3B000DFBF00BF00600240301D002000000000E1
:10F3C00008B5074B07481968026C01F03D019960C8
:10F3D0000AB1406C9047BDE80840FEF7C9BF00BFC6
:10F3E00000640240301D002000000000000000000A
:10F3F000084B09481968826C890901F03D0110B574
:10F400008C019C600AB1C06C9047BDE81040FEF7CB
:10F41000AFBF00BF00640240301D002000000000AC
:10F42000084B09481968026D090C01F03D0110B53F
:10F430000C049C600AB1406D9047BDE81040FEF797
:10F4400097BF00BF00640240301D00200000000094
:10F45000084B09481968826D890D01F03D0110B50E
:10F460008C059C600AB1C06D9047BDE81040FEF766
:10F470007FBF00BF00640240301D0020000000007C
:10F4800008B5074B07485968026E01F03D01D96085
:10F490000AB1406E9047BDE80840FEF769BF00BF63
:10F4A00000640240301D0020000000000000000049
:10F4B000084B09485968826E890901F03D0110B571
:10F4C0008C01DC600AB1C06E9047BDE81040FEF7C9
:10F4D0004FBF00BF00640240301D0020000000004C
:10F4E000084B09485968026F090C01F03D0110B53D
:10F4F0000C04DC600AB1406F9047BDE81040FEF795
:10F5000037BF00BF00640240301D00200000000033
:10F51000084B09485968826F890D01F03D0110B50B
:10F520008C05DC600AB1C06F9047BDE81040FEF763
:10F530001FBF00BF00640240301D0020000000001B
:10F540000E490F4A0F48002310B40B600E4C1946A9
:10F5500001E052F80C0C016044F833100133102B19
:10F5600002F10C02F5D10949094A5DF8044B4FF04C
:10F57000FF338B60CB609360D3607047B01D002079
:10F580000C4E040810600240301D00200060024054
:10F5900000640240000000000000000000000000C5
:10F5A000F8B51F4F467A3D68012404FA06FE1EEAAC
:10F5B000050F31D11B4C4EEA050504EBC60E15F0C4
:10F5C000FF0F3D6044F83620CEF8043004D0164CCE
:10F5D000236B43F40013236315F47F4F16D10568A2
:10F5E0002B6823F01F032B602B6813F00104FBD161
:10F5F000077A46683D23BB40212733602C606F614A
:10F6000062B1807AFFF7DCFD2046F8BD064C236B23
:10F6100043F480032363E2E72046F8BD1046F8BDBB
:10F62000B01D0020301D0020003802400000000006
:10F6300010B50446807AFFF7E3FD0C49607A0A684A
:10F640000123834022EA030313F0FF0F0B6004D170
:10F6500007490A6B22F400120A6313F47F4F04D1A6
:10F66000034A136B23F48003136310BDB01D002005
:10F670000038024000000000000000000000000010
:10F68000184B4FF0FF311A69002210B519611A6149
:10F69000586959615A61186A134C60F080501862B9
:10F6A0001A62586A59625A62196C41F080511964A1
:10F6B000216841F480712160196F01F44071B1F546
:10F6C000007F03D04FF4803119671A67064C6368D6
:10F6D00023F400736360FFF733FF236843F0F00304
:10F6E000236010BD003802400070004000000000A0
:10F6F0002C492D4B4FF080504FF4404208641A6063
:10F700000B6843F001030B600A68264B9007FBD59A
:10F710009A6822F003029A609A689A6019468B6888
:10F72000204A13F00C03FAD1116801F0F9011160BD
:10F730009360136843F4803313601168194B890395
:10F74000FBD55A6F42F001025A675A6F154990076C
:10F75000FBD5164B4B600B68134A43F080730B606C
:10F7600053685904FCD50F490A680E4B9201FBD52A
:10F770000F4A1049996040F2057111609A6842F091
:10F7800002029A601A469368064903F00C03082B9C
:10F79000F9D14B6C43F480434B644B6E43F480438C
:10F7A0004B66704700380240007000400854400724
:10F7B000003C024000948838000000000000000077
:10F7C00008B572B6FDF7C4FE62B6BDE80840FEF7A4
:10F7D000CFBD00BF000000000000000000000000DE
:10F7E000054B44F29F1100200722596098600321C5
:10F7F0000B201A60FFF71CBD10E000E000000000C5
:10F80000F0B5434C434D236C43F000732364D5F8AB
:10F8100000321B0C1B0443F0010343EA0023C5F82C
:10F82000003200295AD00023C5F81C321846C5F80A
:10F8300004321C46C5F80C32C5F81432C30003F17B
:10F84000804303F5C84301301C28C3F84042C3F885
:10F850004442F3D12F4D0026012710681479C300CC
:10F8600003F1804314F0010F03F5C84306F10106CC
:10F8700007FA00F005D0D5F804E240EA0E0EC5F80C
:10F8800004E214F0020F05D0D5F80CE240EA0E0EA7
:10F89000C5F80CE2640704D5D5F814420443C5F852
:10F8A00014429468C3F84042D468C3F84442D5F87F
:10F8B0001C32B14240EA030002F11002C5F81C02FA
:10F8C000CBD11449124AD1F8003223F00103C1F818
:10F8D0000032136C23F000731364F0BDC20002F118
:10F8E0008042012302F5C842834043F00103C5F87A
:10F8F0004012C5F84412C2F84012C2F84412C5F8CA
:10F900000412C5F81412C5F80C32C5F81C32D8E739
:10F9100000380240006400400000000000000000C9
:10F92000164BDA6A936810B513F00104936005D0A2
:10F9300013F00C0F14BF4FF480340124D90506D501
:10F9400013F4406F14BF44F4003444F00204DA03AB
:10F9500006D513F4402F14BF44F4802444F004046B
:10F9600072B600210648FEF7EBF821460548FEF77F
:10F9700097FA62B6BDE81040FEF7FABCB41D00204D
:10F98000BC1D0020D01D0020000000000000000071
:10F9900038B5124DEB6ADC68A2070DD1E30607D536
:10F9A000EB6A1021D96072B60D48FEF779FA62B69B
:10F9B000BDE83840FEF7DCBC5A6922F002025A6109
:10F9C00072B6002105F11000FEF7BAF805F1180033
:10F9D0000121FEF765FA62B6E0E700BFB41D002022
:10F9E000D41D002000000000000000000000000006
:10F9F00038B5124DEB6A1C69A2070DD1E30607D595
:10FA0000EB6A1021196172B60D48FEF749FA62B629
:10FA1000BDE83840FEF7ACBC5A6922F010025A61CA
:10FA200072B6002105F11000FEF78AF805F1180002
:10FA30000221FEF735FA62B6E0E700BFB41D0020F0
:10FA4000D41D0020000000000000000000000000A5
:10FA500038B5174DEB6A5C681C225A60220719D42E
:10FA6000630713D5EA6A9369916921F07001916186
:10FA700013F0700F03F0070118BF41F0080172B6D0
:10FA80000C4841EA0341FEF70BFA62B6BDE8384084
:10FA9000FEF76EBC1A68284622F00202032100F825
:10FAA000281B1A6072B60021FEF7FAF962B6D7E792
:10FAB000B41D0020D41D0020000000000000000044
:10FAC00010B5064C2046FEF7B3FC0022044BE3625F
:10FAD00011460E20BDE81040FFF792BEB41D002075
:10FAE0000064004000000000000000000000000072
:10FAF000184B984210B5044615D0E36A01221A60EB
:10FB00005A68D10707D401210820FDF711FEE36AE6
:10FB10005A68D207F7D562680F4950681268D861F1
:10FB20001A60596110BD0B211320FFF749FB0B210F
:10FB30001420FFF745FB0B211520FFF741FB0B219C
:10FB40001620FFF73DFB054A136C43F00073136466
:10FB5000D3E700BFB41D00205B8F010000380240D6
:10FB600008B50378032B00D008BD0D4B9842FBD19C
:10FB70000C4B0D4A1A6000225A611320FFF740FB1C
:10FB80001420FFF73DFB1520FFF73AFB1620FFF787
:10FB900037FB064A136C23F000731364E4E700BFDD
:10FBA000B41D002000640040020001000038024043
:10FBB00003291AD8DFE801F0110C0702C36A98681C
:10FBC000C0F300707047C36A9868C0F3C0607047A4
:10FBD000C36A9868C0F380607047C36A9B6813F07B
:10FBE000E05F14BF0120002070470020704700BF75
:10FBF00010B403291BD8DFE801F02E2A1D02C16AC8
:10FC000001F5D07110788406C0F300131AD554683A
:10FC10005B0043EAC40343F0040300F00F004860B4
:10FC200090688860D268CA6043F001030B605DF899
:10FC3000044B7047C16A1078840601F5C871C0F39F
:10FC40000013E4D494885B0043EA4453E5E7C16AB7
:10FC500001F5C071D6E7C16A8B68C3F3016318333D
:10FC600001EB0311CEE700BF000000000000000020
:10FC7000012911D00AD3022906D1C36A186910F0EC
:10FC8000030018BF0120704700207047C36ADA687C
:10FC90009207F3D001207047C36AD86810F00300C0
:10FCA00018BF0120704700BF0000000000000000E6
:10FCB00010B471BBC36AD968890731D0D3F8B04199
:10FCC000D3F8B411D3F8B831D360C36AD3F8BC31D8
:10FCD0001361C36A2020D860D86880073FD01379A9
:10FCE000600860F30413A00860F3451313719B06CA
:10FCF0002FD59368E40864F31C03936013795DF8CF
:10FD0000044B080A61F30303090C1371107051804E
:10FD10007047012928D0022928D05DF8044B70478C
:10FD200019698C07F9D0D3F8C041D3F8C411D3F8BE
:10FD3000C831D360C36AD3F8CC311361C36A2020C1
:10FD4000186118698007CAD1586940F010005861DD
:10FD5000C5E71389640D64F30A031381CEE758697C
:10FD600040F002005861BAE7C36AA7E7C36ADAE75E
:10FD7000F0B4654D654C2F6B6549664A664B40F2A1
:10FD8000FF1637432F632F6D3E432E654568656030
:10FD90008568A560C568E560056965614569256296
:10FDA0008569656205682560046A4C60446A8C60F8
:10FDB000846ACC60C46A4C61046B0C62446B4C6214
:10FDC000C4690C60C16B5160016C9160416CD16081
:10FDD000816C5161C16C1162016D5162816B116066
:10FDE000826D5A60C26D9A60026EDA60426E5A612C
:10FDF000826E1A62C26E5A62426D1A60426FC3F816
:10FE00000424826FC3F80824C26FC3F80C24D0F80E
:10FE10008020C3F81424D0F88420C3F82024D0F81C
:10FE20008820C3F82424026FC3F80024D0F890205F
:10FE3000C3F80428D0F89420C3F80828D0F89820F4
:10FE4000C3F80C28D0F89C20C3F81428D0F8A020C0
:10FE5000C3F82028D0F8A420C3F82428D0F88C2098
:10FE6000C3F8002803F54063D0F8AC205A60D0F8FE
:10FE7000B0209A60D0F8B420DA60D0F8B8205A6187
:10FE8000D0F8BC201A62D0F8C0205A62D0F8A8205E
:10FE90001A60D0F8C820C3F80424D0F8CC20C3F8E6
:10FEA0000824D0F8D020C3F80C24D0F8D420C3F80C
:10FEB0001424D0F8D820C3F82024D0F8DC20C3F8CC
:10FEC0002424D0F8C420C3F80024D0F8E420C3F8D8
:10FED0000428D0F8E820C3F80828D0F8EC20C3F8AC
:10FEE0000C28D0F8F020C3F81428D0F8F420C3F878
:10FEF0002028D0F8F820C3F82428D0F8E020C3F850
:10FF00000028F0BC704700BF0038024000000240EB
:10FF10000004024000080240000C02400000000003
:10FF20002DE9F04F4FF00F0C02F0030EC2F38007E3
:10FF3000C2F3C106C2F341150024C2F3C3124FF04D
:10FF400001094FF0030830E0D0F820B02BEA03039A
:10FF500043EA0A030362436809FA04FA23EA0A033C
:10FF60003B4343606300D0F808A008FA03F3DB4387
:10FF70000AEA030A4AEA060AC0F808A0D0F80CA068
:10FF800003EA0A0A4AEA050AC0F80CA0D0F800A061
:10FF900003EA0A0343EA0E030360490819D07F000D
:10FFA000B600AD004FEA8E0E013404F007039B004B
:10FFB00011F0010F02FA03FA0CFA03F3EDD0072C4B
:10FFC000C2D9D0F824B02BEA030343EA0A03436200
:10FFD000C1E7BDE8F08F00BF000000000000000096
:10FFE00011F00C0F38B50546446B12D1296B0A6825
:10FFF000136823F01F0313601368DB07FCD4087A2F
:020000040801F1
:100000004A683D2383401360636843F40073636070
:1000100038BD0248FDF794FAE8E700BFC04E040877
:1000200011F00C0F38B50546446B21D1EA6A13680C
:10003000196821F01F011960196811F00101FBD145
:10004000107A52683D2383401360636823F4805321
:100050006360236823F480632360236843F40073A0
:10006000236072B605F11C00FDF732FD62B638BDA3
:100070000148FDF765FAD9E7C04E0408000000000A
:100080003848394A38B5446BA369656945EA034382
:1000900023F07F4393424CD01ED8073A93423CD082
:1000A0000132934210D16268C36A22F400721B6865
:1000B00062601A6842F001021A60626842F480527B
:1000C00062605B68012B47D915F00A0F18BFA3695E
:1000D000BDE83840FEF74CB9244A934212D00232B0
:1000E0009342F1D1C36A1B68596839B32368028C03
:1000F00043F4A06342F0010202842360BDE838406B
:10010000FEF736B96368026B23F40073126863600C
:10011000136843F001031360D6E7038C1A0A0BD06F
:1001200003F0010343F0F00302F0060213432361DE
:10013000CAE7038CC3F347032361C5E7636823F46D
:1001400000736360236843F40073236072B61C304D
:10015000FDF7BEFC62B6B7E7236823F48063236033
:10016000B2E700BFE41D0020080003008200070082
:100170003148F8B5446B076B66693A68B1B201F46F
:100180005F43DB436361136823F01F03136013684D
:10019000DB07FCD43A7AC56A7F683D2393402A681E
:1001A0003B60136823F01F031360136813F001030F
:1001B000FBD12F7A6D683D22BA40CF052A6048BF37
:1001C00001238D05836044BF43F0020383604A0529
:1001D0000AD5626822F400726260226843F0040368
:1001E00042F40072226083600F0544BF43F00803AD
:1001F00083604D0444BF43F020038360CC040FD5DB
:1002000043F010033104836012D472B66FF0010121
:100210000A48FDF75DFC62B6BDE8F840FEF7A8B8F5
:10022000320405D4002BF0D1BDE8F840FEF7A0B8A9
:1002300043F040038360E8E7E41D0020001E002037
:1002400010B5074C2046FEF793F9064B064A626349
:10025000002103F13C02E161E362226310BD00BFB3
:10026000E41D0020184E0408005800400000000063
:10027000F8B50378456B40F256428262012B40F29A
:100280001642044642623CD02B46E16A226B60680B
:100290000F68D2F800E04168494E05F11002BA60DB
:1002A0004FF41064CEF808204FF4004700222F606E
:1002B0002A606C605F684FF6C0743C40077A5C60EF
:1002C0005C68B14244F02A045C604EDD3D4CA142C2
:1002D00007DC022F68D0032F59D048F6FF720D219A
:1002E0001962DA6101781A68022992B249D00329A9
:1002F00044D0012935D01A602B6843F001032B60EC
:10030000F8BD314B9842BFD1304EC06A336A304A93
:1003100043F4800300213362234631620521FFF755
:100320003FF92C4A206B23460521FFF739F9336C3E
:1003300043F48003336405212120FEF741FF0521AA
:100340002220FEF73DFF616AA26A636B41F06061A3
:1003500042F0606241F4403142F440326162A26294
:1003600093E722F00A0292B2C5E72B2449001A4A09
:100370001C62B2FBF1F2C2F30B02B2E742F00A02D6
:10038000B9E722F0080292B242F00202B3E701EBB1
:10039000810202EB8201104AB2FBF1F26FEA824263
:1003A0006FEA924292B29AE701EB41020A49B1FB2D
:1003B000F2F26FEA42426FEA524292B28FE700BF16
:1003C000A0860100801A0600E41D002000380240CB
:1003D00021000108E1FF000880DE8002000000002B
:1003E0000378012B2FD0016B436B0A6870B5002492
:1003F0004FF400451D601C605C605C61136823F075
:100400001F0313601368DC07FCD40E7AC56A4C68BE
:100410002A683D23B3402360136823F01F03136051
:100420001368DB07FCD40446287A6A683D238340BE
:1004300013600846FFF7FCF8E06AFFF7F9F8084B8D
:100440009C4201D070BD70472120FEF7D9FE2220CA
:10045000FEF7D6FE034A136C23F480031364F1E71E
:10046000E41D0020003802400000000000000000F1
:100470004900F0B441F00101002401848460049932
:10048000446B62B6C56A476A2E68114D3760F260E8
:100490007360AA6A00E062B672B6A3699E0702D4CE
:1004A00023689B0508D5AB6A9B1AB3F5FA7FF2D394
:1004B0004FF0FF30F0BC7047636843F40073636033
:1004C000236843F4A06323601C30F0BCFDF7F0BA4E
:1004D000B01A002000000000000000000000000032
:1004E000F0B549000024018405A984609C46446B52
:1004F00091E8824062B6056BC36A2E681D68836A04
:100500003360436AF260134AC6F804C02B60E960A6
:100510006F60956A00E062B672B6A369990702D46B
:1005200023689B0507D5936A5B1BB3F5FA7FF2D36B
:100530004FF0FF30F0BD636843F4007363602368DD
:1005400043F48073714623601C30BDE8F040FDF732
:10055000AFBA00BFB01A0020000000000000000089
:100560002DE9F04FA94BAA4A9B69D0F850909A61A7
:1005700085B072B600F16003CA460393814699F8CC
:100580000030012B06D0D9F85C3063B9DAF81430AA
:10059000DA0608D4DAF81830039843F01003CAF8E2
:1005A0001830FDF775FA62B64FF0000BDAF8143028
:1005B000DB0623D5D9F85060336A03F4F012B2F5A4
:1005C000802F2FD0B2F5402FF0D103F00F0209EBAE
:1005D0008202C3F30A13D26803339B08106AE5D082
:1005E00006F580560222316812B140F8041B013A28
:1005F000013BF8D1DAF81430DB06DBD4D9F85C30F3
:10060000012202FA0BF21A42019263D10BF10103AB
:100610000093D9F854309DF800B09B689B45C5D92C
:1006200072B6ACE703F00F0509EB8505C3F30A14B6
:10063000EB6899690B78DBB94B688A68C868033343
:100640009A1AE31C9B084FEA920209D006F58056DD
:100650008646376812B14EF8047B013A013BF8D167
:100660002044C860EB689A699368234493609DE7CF
:10067000C86824B3426906F580562746032F06D979
:1006800003699A4203D3C2684261032FF8D8D6F8AF
:1006900000E000232EFA03F102F1010CC0F814C0AF
:1006A000117002694169914224BFC2684261013FF1
:1006B00003F1080303D0202B4269EBD1DEE772B6C9
:1006C0008368234483600021FDF73AFAFDF7E0F8E0
:1006D00062B6C7E772B6DAF80820D9F85C3001993B
:1006E00022F0010223EA0103CAF80820C9F85C30AD
:1006F00062B609EB8B07FC6862699168536899429E
:1007000080F0AE80D9F85000268A4FEA4B1800EBF3
:1007100008045B1AD4F818199E4228BF1E468BB2F3
:10072000B6EB830F0BF1010300932FD81B03CDF819
:1007300008A09A461378002B39D1F31CD4689B0883
:1007400000EB0A0E18BF214605D051F8040BCEF875
:100750000000013BF9D13444D460FC6862699368BD
:10076000516833449942936076D9D9F85000248A6D
:1007700000EB0805CE1AD5F81839A64228BF264640
:100780009BB2B6EB830FD5D9DDF808A0002272B674
:10079000DAF8083043F00103CAF808302AB9DAF869
:1007A0003438019A1A43CAF8342862B631E700EBAC
:1007B0000A0ED068F6B1D0F810C03246910829D19F
:1007C000836900210C465D1C85611B78654503FA31
:1007D00001F344EA030424BFC3688361013A01F1D1
:1007E000080103D0202901D08369ECE7CEF800404E
:1007F000002AE3D172B68368334483600021FDF799
:100800009FF9FDF745F862B6A7E700BFB01A0020D0
:10081000E04E04088469BCEB040348BF03339B101B
:100820008B4228BF0B464FEA830BCBEB02023BB156
:10083000214651F8045BCEF80050013BF9D15C44ED
:10084000A445846104D8C3688361002AB6D1D1E786
:10085000002ACFD02346B4E7DDF808A0012296E7AE
:100860000BF101030093F9E7000000000000000015
:1008700010B5064C2046FEF793F94FF0A043044A0A
:100880002365002362652366636610BD201E002079
:10089000D04E04080000000000000000000000002E
:1008A0000378012B00D07047F0B53F4B066D98429E
:1008B00083B0054618BF344655D000233B483C4919
:1008C000EB654FF43412F060C6F800182020C6F82B
:1008D000003EB263FCF764FE012323612369DB075A
:1008E000FCD40C20FCF75CFE2369002BFCDA6B6D5A
:1008F0002F6DD3F808E000231A46B36019464FF075
:10090000FF3407EB421301327245C3F800194FF070
:100910000000C3F81019C3F80849C3F8001BC3F856
:10092000101BC3F8084BECD96B68DB684FF0011261
:10093000C7F81C28C6F81008C6F81408C6F81C0822
:100940006BB143F20803B3616B6E4FF0FF3272611B
:10095000D3B1B36843F00103B36003B0F0BD4FF40B
:100960004053B361F0E7134B5A6B42F080025A6375
:100970005A69002042F080025A610E2158614320DA
:10098000FEF71EFC2C6D98E70B4B00957E224FF472
:10099000067105F16800FCF7C3FF6866FCF798FE76
:1009A000FCF776FFD5E700BF201E00204014004072
:1009B0000300200200380240610501080000000029
:1009C000F8B50378012B25D0436D056D9F68002293
:1009D00011464FF0FF3405EB42130132BA42C3F81F
:1009E00000194FF00006C3F81019C3F80849C3F8FE
:1009F000001BC3F8101BC3F8084BECD90A4B4FF08F
:100A000001129842C5F81C28C665C5F81C68AE607E
:100A1000AE6300D0F8BD4320FEF7F2FB034A536BF0
:100A200023F080035363F5E7201E002000380240C6
:100A3000F8B5056D202307462B612B6913F02004C0
:100A4000FBD10C20FCF7ACFDD7F854E0C5F83448D6
:100A50004FF00112DEF80860C5F81C2823464FF05D
:100A600000604FF0FF3105EB43120133B342C2F88F
:100A70000009C2F8000BC2F80819C2F8081BF2D925
:100A8000DEF80030BB65DEF800303A6D6B62102393
:100A90001361136913F01004FBD10C20FCF780FDE7
:100AA000D5F80038104A114823F4FE63C5F8003821
:100AB000AB6943F4402343F010030921AB61C5F84F
:100AC0001018C5F81418F860C5F8104BC5F8002BBD
:100AD000C5F81049C5F80029BB6D03F1100243F4B5
:100AE0008013BA65AB62F8BD40800010F04E040878
:100AF000026D90F84E10D2F8003823F4FE6343EAFA
:100B00000113C2F800387047000000000000000028
:100B10002DE9F8430FFA81F800EB88070D46FB68D2
:100B20001A6802F00302022A5ED0032A5ED04C4EFD
:100B30004C49012A18BF0E46046DD9686A0104EBBE
:100B4000020E4FF0000CCEF810CB002973D0B3F892
:100B500012E005F1580149014EEA060E44F801E0A1
:100B600005F1100CD4F81C184FF0010E0EFA0CFE13
:100B70004EEA0101C4F81C18224499684FF0000E97
:100B8000C2F810E9002933D0998B1A8A01294FEA5B
:100B90009203826D88BF4B4305F13F0103EB020EC8
:100BA00004EB810142EA0343AA0142F02002C0F8AB
:100BB00058E04B60226123699A06FCD40C20FCF7B4
:100BC000EFFCFB681A8A05F1480342EA85525B0193
:100BD0003243E2500121D4F81C3801FA05F51D43D7
:100BE000C4F81C58BDE8F8831F4EA5E71F4EA3E7C5
:100BF00005F13F0204EB8202AB011D49516043F055
:100C00002003236123699B06FCD404EB48180C20C5
:100C1000FCF7C6FCD8F8003923F40043C8F80039C3
:100C2000D4F81C38012202FA05F523EA0503C4F8BA
:100C30001C38BDE8F88304EB481105F11009D1F820
:100C400000CB2CF4004CC1F800CBD4F81C184FF0AA
:100C5000010E0EFA09FE21EA0E01C4F81C188BE7FA
:100C600000800410008000100080081000800C102C
:100C7000000400020000000000000000000000006E
:100C80005831036D49015B5813F4004004D013F44C
:100C9000001F14BF01200220704700BF00000000A9
:100CA0004831036D49015B5813F4004004D013F43C
:100CB000001F14BF01200220704700BF0000000089
:100CC00000EB8101CB681B6A19685B685360116097
:100CD000704700BF0000000000000000000000009E
:100CE00000EB810330B4DD68AC696368236131B91E
:100CF000402B04D940236360094A3F2402E05C1E74
:100D000043F0C042006D6D8A00EB41112B19B3FB1B
:100D1000F5F342EAC343C1F8103B30BC704700BF53
:100D20004000006000000000000000000000000023
:100D30002DE9F041244E376D07EB40130546D3F8FB
:100D4000084BC3F8084B200703D5D7F81438190708
:100D50001DD4E20719D5D7F81438DB0715D506EBF3
:100D60008506194CF1688B6958681A69904216D348
:100D70006289CE680123AB4022EA030363812946DE
:100D800020463346BDE8F0411847BDE8F08106EB48
:100D900085032946DB6830465B689847D9E7121A15
:100DA000002199605A6029462046FFF799FF72B6E4
:100DB000236D03EB4515D5F8003B43F08063C5F880
:100DC000003B62B6BDE8F081201E0020000000005C
:100DD00000EB810310B4DC68626953681361ABB146
:100DE00071B15A1E006D248A00EB41112244B2FBFE
:100DF000F4F243EAC243C1F810395DF8044B70477E
:100E0000402BEED9402353603F22EBE7036D5DF8A2
:100E1000044B03EB41114FF40023C1F81039704724
:100E20002DE9F0412C4F3D6D05EB40130646D3F8FC
:100E30000849C3F80849E10703D5D5F81038DA079F
:100E40000AD4230606D50123D5F8342803FA06F67A
:100E5000164224D1BDE8F08107EB8003D9684B69C5
:100E600058681A6990422BD2121A002199605A6070
:100E700031463846FFF7ACFF72B63B6D03EB4610C8
:100E80000122D0F8001941F00441C0F80019D3F84C
:100E90003418B2400A43C3F8342862B6D1E772B6B8
:100EA000D5F83438FA6D0D4823EA0603C5F834380E
:100EB00016430021FE65FCF70BFE62B6BDE8F0812B
:100EC0003A89D1F808800123B34022EA03033B8129
:100ED00031463846C047B4E7201E0020801E00205F
:100EE00070B5384E356D6C69AB691C40E1046C61BE
:100EF00026D4A20448BFD5F80838230704D5736860
:100F0000DB680BB12F489847E60629D46003D5F873
:100F1000185807D5E90750D4AA074AD46B0744D418
:100F20002E072FD4240307D5E8033AD4A9032FD4DE
:100F30006A0332D42B031ED4BDE87040FDF718BA03
:100F400000243046F465FDF7C3FE73681B68002B70
:100F5000F2D0214630469847BDE87040FDF708BA08
:100F600072B6AB69184823F01003AB610021FCF79F
:100F7000AFFD62B6CAE70320FFF7DAFEBDE87040B6
:100F8000FDF7F6B90320FFF74BFF2403D4D5CBE7D9
:100F90000120FFF7CDFE6A03CCD50220FFF7C8FE83
:100FA000C8E70020FFF7C4FEC0E70220FFF738FFC4
:100FB000B6E70120FFF734FFB0E70020FFF730FF6E
:100FC000AAE700BF201E0020801E002000000000B5
:100FD000036D03EB4111D1F8003B43F08063C1F88E
:100FE000003B70470000000000000000000000000F
:100FF000036D10B403EB41140120D4F8002942F032
:101000000442C4F80029D3F834285DF8044B00FAF0
:1010100001F11143C3F83418704700BF000000000D
:10102000036D03EB4111D1F8003B43F40013C1F809
:10103000003B7047000000000000000000000000BE
:10104000036D03EB4111D1F8003943F40013C1F8EB
:1010500000397047000000000000000000000000A0
:10106000036D03EB4111D1F8003B23F40013C1F8E9
:10107000003B70470000000000000000000000007E
:10108000036D03EB4111D1F8003923F40013C1F8CB
:101090000039704700000000000000000000000060
:1010A00010B50A4C0A4B4FF6FF7220461A80FDF726
:1010B00067FD084B08480949094AE06103F124002B
:1010C00023626062A162E26210BD00BFC020002006
:1010D000BC200020604E04080030014016000106CC
:1010E00046000106000000000000000000000000B3
:1010F000C368416870B51C69DA680D7D1440E2B2BE
:10110000D24306461A614DB965072BD50378042BE7
:1011100025D0A10709D4E4070BD470BDA30712D5CD
:101120000378042B0CD06307F5D50423E407337050
:10113000F3D5736830461B6998470323337070BD3D
:101140008B68C3B198476507E5D53378042BECD19C
:101150007168CB68002BE8D030469847E5E78B688C
:1011600033B19847A207D6D53378042BDDD1EFE70A
:10117000A007EED4CFE76207EBD4CCE70000000075
:1011800008B50348FFF7B4FFBDE80840FDF7F0B825
:10119000F02000200000000000000000000000001F
:1011A00008B50348FFF7A4FFBDE80840FDF7E0B825
:1011B00008210020000000000000000000000000E6
:1011C00038B5064D064C2846FDF742FA054BEB6054
:1011D0002046FDF73DFA044BE36038BDF0200020C7
:1011E00008210020000800400040014000000000ED
:1011F000F8B50378012B04463AD0C36800221A6080
:101200005A639A635A626168A26888690D7D4E6864
:10121000B2FBF6F220F0FF00013A00274FF6FF760E
:101220001F61D8609A62DE620A786DB940F20120CF
:10123000542198619960C2B113221A6203F13802F5
:10124000343322616361F8BD4FF481706421986189
:1012500099603AB131221A6203F1340238332261C3
:101260006361F8BD13221A62F6E731221A62E5E7DC
:10127000164B984204D0164B984214D0E368C2E74C
:10128000144B1A6C42F004021A641A6A002042F0ED
:1012900004021A62072118621E20FDF791FF0E4B0F
:1012A000A360E368AFE70B4B5A6C42F480325A6498
:1012B0005A6A002042F480325A620721586218208C
:1012C000FDF77EFF054BA360D8E700BFF0200020AC
:1012D000082100200038024000BD0105007A030A01
:1012E00008B50378022B00D008BD0E49C368002260
:1012F00088421A60DA601A610BD00B4B9842F3D126
:101300001820FDF77DFF094A536C23F480335364A2
:10131000EAE71E20FDF774FF044A136C23F0040370
:10132000136408BDF020002008210020003802408E
:10133000C3685A69002042F0010205215A61186110
:10134000196070470000000000000000000000006D
:10135000C268D36810B413F0FF040CD14168146163
:10136000087D58B1886878B143F00603096909B16E
:1013700043F00103D3605DF8044B70478868002890
:10138000F2D143F00203F1E743F00403EEE700BFBC
:10139000024AD36843F08003D360704700100140D5
:1013A000024AD36843F08003D3607047004800408E
:1013B000024AD36843F08003D3607047004C00407A
:1013C000024AD36843F08003D36070470050004066
:1013D000024AD36843F08003D36070470014014091
:1013E0002DE9F041D0F85451D5F80C802B68DA057E
:1013F00006469CB249D472B614F02F0F2BD0371D7D
:1014000007E0A00669681DD42C68A4B214F02F0F61
:1014100021D02307F5D014F0080F0CBF0021802144
:10142000E00748BF41F02001A20748BF41F040015A
:10143000630748BF41F480713846FCF731FDA006D0
:101440006968E1D5C9B23046FDF7D2F92C68A4B27B
:1014500014F02F0FDDD162B618F0800F01D02206F4
:101460001ED463060FD572B6B26C736C9A4221D04B
:101470004FF6BF7308EA03036FF04002EB602A6087
:1014800062B6BDE8F081BDE8F08172B64FF400713C
:101490000430FCF705FD6FF480732B6062B6AAE799
:1014A00072B606F13000FCF72BFE00280ADB6860FC
:1014B00062B6D6E7B36B002BDAD0301D1021FCF7F3
:1014C000EFFCD5E70821301DFCF7EAFC4FF63F732F
:1014D00008EA030343F04003EB60E9E70000000083
:1014E00008B50348FFF77CFFBDE80840FCF740BFA4
:1014F000202100200000000000000000000000008B
:1015000008B50348FFF76CFFBDE80840FCF730BFA3
:101510007822002000000000000000000000000011
:1015200008B50348FFF75CFFBDE80840FCF720BFA3
:10153000D023002000000000000000000000000098
:1015400008B50348FFF74CFFBDE80840FCF710BFA3
:10155000282500200000000000000000000000001E
:1015600008B50348FFF73CFFBDE80840FCF700BFA3
:1015700080260020000000000000000000000000A5
:101580002DE9F041DFF89480164F174A174E184D99
:10159000184C40460021FDF7E3F8174B174AC8F8EE
:1015A000543138460021FDF7DBF8154B154AC7F8D2
:1015B000543130460021FDF7D3F8134B134AC6F8D7
:1015C000543128460021FDF7CBF8114B114AC5F8DC
:1015D000543120460021FDF7C3F80F4BC4F85431B5
:1015E000BDE8F0817822002091130108D02300206B
:1015F000282500208026002000100140A1130108AA
:1016000000480040B1130108004C0040C11301081C
:1016100000500040D1130108001401402021002097
:1016200038B5394C037A002918BF0C46012B054602
:1016300023D0D5F85431354A934237D002F5806231
:10164000934233D02168324AB2FBF1F29A60A28809
:10165000E088218942F4045240F0400042F02C021C
:1016600041F0010192B280B289B20024186159613F
:10167000DA601C601A685B6838BD264B98422FD030
:10168000254B984218D0254B98421FD0244B9842A6
:1016900030D0244B9842CCD1234A536C43F02003E2
:1016A000536404214720FDF78BFDC2E721681F4AE0
:1016B000B2FBF1F29A60CAE71B4A136C43F4802331
:1016C000136404212720FDF77BFDB2E7164A136C53
:1016D00043F40023136404213420FDF771FDA8E7CF
:1016E000114A536C43F01003536404212520FDF785
:1016F00067FD9EE70C4A136C43F4801313640421C6
:101700003520FDF75DFD94E7204F040800100140EF
:1017100080DE80022021002078220020D0230020BB
:1017200028250020802600200038024000BD010549
:10173000037A022B00D070471E49D0F854310022A2
:101740008842DA601A615A6113D01B4B984218D054
:101750001A4B98421DD01A4B984222D0194B9842EE
:10176000E9D1194A536C23F0200353644720FDF755
:1017700047BD154A536C23F0100353642520FDF731
:101780003FBD114A136C23F4802313642720FDF717
:1017900037BD0D4A136C23F4002313643420FDF786
:1017A0002FBD094A136C23F4801313643520FDF711
:1017B00027BD00BF2021002078220020D023002058
:1017C000282500208026002000380240000000006C
:1017D00010B504460846FCF703FD00B110BD0C230C
:1017E00023604FF0FF3010BD00000000000000003B
:1017F000FDF77EBF000000000000000000000000B8
:10180000704700BF00000000000000000000000062
:1018100008B50F4B0F4A9B6901219A614FF4805024
:1018200028F0E6FE01E0FCF7EBF80EF029F80E28B0
:101830004FF03C00F7D1BFF34F8F0749074BCA6801
:1018400002F4E0621343CB60BFF34F8FFEE700BFAB
:10185000B01A00203050040800ED00E00400FA0542
:1018600008B5064B064A9B699A6105F021FA0220E9
:101870000BF0B6FD0A20FCF7C3F8F6E7B01A00201B
:101880003C500408000000000000000000000000C0
:1018900070B5604B604A9B692DED028B9A610EF02A
:1018A0008FFA044602200EF02BFA0EF089FA054654
:1018B00001200EF025FA022C71D0022D6FD09FED81
:1018C000570A002000F0C4FE0EF062FA054602201E
:1018D0000EF016FA0EF05CFA064601200EF010FA31
:1018E000002D62D00024B7EE000A012000F0B0FE07
:1018F00040F6C410FCF784F801209FED490A044427
:1019000000F0A6FE40F6C410FCF77AF8A542EAD132
